:100000000C948E020C941C0A0C94D5020C94D5020C
:100010000C94D5020C94D5020C94D5020C94D50204
:100020000C94D5020C94D5020C944E210C942022F1
:100030000C94C9170C94D5020C94D5020C94D502DB
:100040000C94D5020C94D5020C94D5020C94D502D4
:100050000C94D5020C9416180C94D5020C94D5026D
:100060000C94D5020C94D5020C94D5020C94D502B4
:100070000C94D5020C94D5020C94D5020C94D502A4
:100080000C94D5020C94D5020C94D5020C94D50294
:100090000C94D5020C94D5020C94D5020C94D50284
:1000A0000C94D5020C94D5020C94D502720D720DED
:1000B000A40DA40DF10D0F0E300F300F1A0EAF0E60
:1000C000C00EC00E200F300F300F290FD00FD00FF1
:1000D000E20FE20FD90FE20FE20FE20FD00FD00FC5
:1000E000DE0FE20FE20FDE0F8D22B422AC23B4222A
:1000F000AC2300232323AC237A23892329001E0069
:100100001F002000210022002B0014001A0008000C
:1001100015001700015404001600070009000A002A
:1001200001581D001B00060019000500000000001A
:1001300035002B002C622A68000000004F42296124
:1001400050414C64230024002500260027002E0087
:100150001C0018000C00120013002D000B000D00F5
:100160000E000F003300340011001000360037007D
:100170003800310028682C722F0030000000000089
:100180004B7452414E7151420000000000000000CB
:10019000000000000000000000003A003B003C00AE
:1001A0003D00000001003E003F0040004100000013
:1001B00001004200430044004500650000000000CB
:1001C0000100010001000100000000000100010029
:1001D00001000100FB00FA00F900FC002F023002D0
:1001E0004A004E004B004D002F00300050005100DF
:1001F00052004F0036023702F200F100F000F30027
:100200002602270201000100F400F50000000000B2
:1002100001000100010001000000000000000000DA
:10022000000065000000A7000000A9000000000019
:100230000000BD000000AA00000000000000BE0099
:10024000005C0000000000000000A60000000000AC
:100250000000010001000100000000000100010099
:10026000010001000000000000000000000000008C
:1002700000004A004B004E004D00000000005000FE
:10028000520051004F00F9000000F200F000F100B0
:10029000F300FA0001000100F400F5000000000086
:1002A000010001000100010000000000000000004A
:1002B000000000000000000000000000000000003E
:1002C000000000000000000000000000000000002E
:1002D000000000000000000000000000000000001E
:1002E000000000000100010000000000010001000A
:1002F00001000100000000000000000000000000FC
:1003000000000000000000000000000000000000ED
:1003100000000000000000000000000000000000DD
:1003200000000000010001000000000000000000CB
:100330000100010001000100000000000000105059
:100340001150125013500000000000000000000087
:100350000000000000001050115012501350000017
:10036000000000000000000000000000000000008D
:100370000000000001000100000000000100010079
:1003800001000100005C0000000000000000A60069
:1003900000000000A900BD000000000000000000F7
:1003A000AA00BE00000000000000000000000000E5
:1003B0000000A70001000100000000000000000094
:1003C0000100010001000100000000002C034400B6
:1003D00061006300740079006C002D004D00610025
:1003E0006E00750066006F0072006D00200028002E
:1003F000350078003600290000000E0374007300F9
:1004000068006F0072007400000004030904090210
:100410003B00020100A0FA090400000103010100F1
:100420000921110100012240000705810308000A8B
:10043000090401000103000000092111010001224B
:1004400081000705820320000A120110010000004C
:10045000084D44363501000102000105010902A1E1
:100460000185020901A100050919012905150025C9
:100470000195057501810295017503810105010949
:100480003009311581257F950275088106093815D7
:1004900081257F950175088106050C0A38021581B2
:1004A000257F950175088106C0C005010980A1015D
:1004B000850319012AB700150126B70095017510AB
:1004C0008100C0050C0901A101850419012AA002BF
:1004D000150126A002950175108100C005010906CD
:1004E000A101050719E029E7150025019508750107
:1004F00081029501750881010507190029FF150082
:1005000026FF009506750881000508190129059543
:100510000575019102950175039101C011241FBE5B
:10052000CFEFDAE0DEBFCDBF04B603FE27C0809177
:10053000840290918502A0918602B0918702873053
:10054000904BA740B04BD1F41092840210928502D8
:10055000109286021092870214BE84B7877F84BFF0
:100560000FB6F894A8958091600088618093600030
:10057000109260000FBEE0E0F8E3099511E0A0E002
:10058000B1E0E4EAF8E402C005900D92AA39B1079F
:10059000D9F722E0AAE9B1E001C01D92A438B20760
:1005A000E1F70E948E1E0C9450240C9400000C94D1
:1005B000AE0581E0089581E008950C94DB02089572
:1005C0000C94DF021F93CF93DF9300D000D01F92D3
:1005D000CDB7DEB749835A836B833091BF018981E0
:1005E0009A81311114C0662359F0222349F00E94E8
:1005F0004515182F682F89819A810E94EC1403C039
:100600000E941815182F69817A81812F04C00E94D9
:10061000451569817A810F900F900F900F900F9080
:10062000DF91CF911F910C949403FC01262F408100
:1006300051816281738184810C94E202CF93DF93B4
:10064000EC0160E00E941503BE01DF91CF910C9494
:10065000E0020E947716811102C00E941E170C94BE
:10066000D7020C94AC0508950E94BE0F0E9433037C
:100670002FEF84E39CE0215080409040E1F700C0E0
:1006800000000C943C180F931F93CF93DF93EC0161
:1006900061E00E9415038C01BE010E94DD028823E7
:1006A00049F1BE01C8010E94C507882319F1BE01A6
:1006B000C8010E9417088823E9F0BE01C8010E9402
:1006C00042098823B9F08A81882369F001158CE5F5
:1006D000180731F00F3D1C4531F40E941E170AC067
:1006E0000E94340307C0CE01DF91CF911F910F917B
:1006F0000C94D90280E0DF91CF911F910F91089562
:1007000008950C94800381E008950C948303CF93A3
:10071000C82F0E9481038C2F0E948503CF910895DA
:1007200080E090E00895089528E4829FC00111249C
:10073000FC0126E0729FE00DF11D1124E60FF11D72
:10074000EE0FFF1FE450FF4F859194910895880F9D
:10075000991FFC01E453FC4F859194910895CF9328
:10076000DF930E9494030E94C704EC018115904519
:1007700008F041C0C11580E4D80708F0D1C0C83ED8
:10078000D10510F5C03ED10508F0FDC0C83AD1052D
:1007900078F4C53AD10508F0A2C0C130D10509F4FA
:1007A000F2C008F4EEC0C430D10508F0ECC0E9C0D6
:1007B000CF3BD10508F49BC0C03CD10508F4E1C093
:1007C000CE01805C91099EC0C11590E2D90758F412
:1007D000C11521E0D20708F0D6C0C03FD10508F40A
:1007E000D0C0D065D0C0C11580E3D80708F08EC056
:1007F000CE019F7087C0C11595E5D90708F043C0A9
:10080000C11524E5D20708F0A2C0C11582E5D807BA
:1008100008F5C11591E5D90708F085C0CE0174E04F
:10082000969587957A95E1F783709C2F937021E0D8
:1008300030E002C0220F331F9A95E2F73C68382B54
:10084000CF70C695C69580E2C89FE0011124C22BE7
:10085000D32B99C09E01237033278C2F86958695C4
:10086000C115D34508F064C0C1E0D0E002C0CC0F90
:10087000DD1F2A95E2F720E2829FC0011124C82BD8
:10088000D92BDC6880C0C11529E5D207A0F4C115B9
:1008900088E5D80708F060C0C11596E5D90708F0CB
:1008A00070C08C2F0E945B058F71C82FD0E0DC2FA9
:1008B000CC27D06268C0C1152AE5D20708F451C020
:1008C000CE0190568115904208F05BC08D2F8F713C
:1008D0000E945B05DD27D0628F71D82B54C0C55AAA
:1008E000D0E0C65BDE4FC881D0E0D0644CC0C85AAF
:1008F000D0E0CC0FDD1FC45EDE4F0990D881C02D43
:10090000D46441C00E94A703EC013DC0CE019927E9
:10091000D3FF03C0EC01D86C36C0EC01D06C33C0FF
:10092000DF70D06A30C0DC2FCC27C16FD06A2BC0FB
:10093000C1E0D0E002C0CC0FDD1F2A95E2F720E233
:10094000829FC0011124C82BD92BDA681CC0DC2F70
:10095000CC27C46FD06A17C0DC2FCC27C06FD06AF9
:1009600012C08C2F8F700E945B0594E0D695C795BE
:100970009A95E1F7CF70D0E0DC2FCC27D069C82B57
:1009800002C0C0E0D0E0CE01DF91CF91089582385F
:10099000910569F1B0F48133910509F46DC048F413
:1009A0008932910509F463C08A32910509F469C05E
:1009B00008958533910509F455C089339105B9F03F
:1009C0000895833E910569F138F4803E9105B1F0B8
:1009D000823E910509F10895863E9105A9F1873E71
:1009E0009105B9F1843E910509F064C023C02091BE
:1009F000750220FD4FC021FD4DC008958091750204
:100A000080FD44C08091760280FF44C080917502D1
:100A100084FD42C083EE4DC08091750282FF38C0D4
:100A2000F5CF8091750282FD33C08091760280FD02
:100A300031C0ECCF8091760281FF32C08091750287
:100A400084FD2AC087EE35C08091750283FF26C0E1
:100A5000F5CF8091750283FD21C08091760281FDE2
:100A60001FC0ECCF8091750285FD1CC01DC0809118
:100A7000750285FD19C016C08091750286FD16C0ED
:100A800017C08091750286FD13C010C089E311C0A4
:100A900082EE0FC080EE0DC080E00BC086EE09C074
:100AA00084EE07C089E205C085E303C08AE201C085
:100AB00081E390E008959091750292FF0DC0282F78
:100AC0002871283019F4877F846006C0282F24718C
:100AD000243011F48B7F886093FF0DC0282F28717C
:100AE000283119F4877E846106C0282F24712431AF
:100AF00011F48B7E88612091760220FF0DC0382F83
:100B00003871383019F4877F816006C0382F317111
:100B1000313011F48E7F886021FF0DC0282F28719D
:100B2000283119F4877E816106C0282F2171213177
:100B300011F48E7E886194FD877E0895E82FF0E0A1
:100B4000ED59FD4F80810895089580EA8A95F1F767
:100B5000089508950C94A9050C94AA050C94A90570
:100B6000F894E82FE295EF70F0E031A1282F2F7074
:100B700081E090E001C0880F2A95EAF7982F9095C0
:100B8000932391A392A1892B82A378940895089529
:100B9000CF93DF930E940B078091000180910001A9
:100BA000811102C096E001C090E09093700286E04F
:100BB000891B80936F02C3E5D1E089910E94B00543
:100BC00081E0C935D807C9F7CDE4D1E089910E9409
:100BD000B00581E0C335D807C9F7E7E5F2E0A3E641
:100BE000B2E083E692E011921D928E179F07D9F72B
:100BF00086E00E94B5060E942903DF91CF910C94F4
:100C000015070E94EC06882309F180916F0290E09D
:100C10008D599D4F0E942807811114C080919A011F
:100C20008F5F80939A01863078F0E0916F02F0E058
:100C3000ED59FD4F80E090E01192019686309105CC
:100C4000D9F702C010929A010C943103809170027E
:100C500090E08D599D4F0E9443070C94C7058F92D9
:100C60009F92AF92BF92CF92DF92EF92FF920F933B
:100C70001F93CF93DF9383E5A82E81E0B82EC7E5BD
:100C8000D2E099E5E92E91E0F92E912C01E010E0F7
:100C90006501F5018081F894E82FE295EF70F0E0AE
:100CA00021A18F70A80102C0440F551F8A95E2F759
:100CB000CA01922F982B91A392A18095892382A398
:100CC00078940E94A505EDE4F1E020E030E0812C6D
:100CD0004191A42FA295AF70B0E090968C9190E0D6
:100CE0004F7002C0959587954A95E2F780FD07C041
:100CF000802F022E01C0880F0A94EAF701C080E01D
:100D0000882A2F5F3F4F2630310511F75FEFA51A74
:100D1000B50AF60180810E94B0058881881619F015
:100D2000888281E001C080E0982A2196EA14FB04C1
:100D300009F0AECF6091700270E06D597D4F292DA2
:100D400046E087E592E00E94B6060E940106892DE2
:100D5000DF91CF911F910F91FF90EF90DF90CF9097
:100D6000BF90AF909F908F9008950895FF920F933A
:100D70001F93CF93DF938C01F62ED72FC42F2223FE
:100D800049F081E080939D010E94FB1790939C01A4
:100D900080939B0180919D018823C1F080919B01EC
:100DA00090919C010E940718069780F0EF2DFD2F6F
:100DB000D8014C2F50E0CD01801B910B8417950773
:100DC0001CF48D918193F7CF10929D01DF91CF910B
:100DD0001F910F91FF90089580919E01811112C083
:100DE0008091D80080618093D8008AE18A95F1F7DC
:100DF00000C08091D90080FD02C082E001C081E086
:100E000080939E0181E090919E01913009F080E0F5
:100E100008950C94EC060E940907809300010E943B
:100E2000EC0681110C941C0708950E94EC068111B8
:100E300002C00C942207089561E070E081E091E027
:100E40000C94CE0961E070E081E091E00C94D5094A
:100E5000CF93DF93D82FC92F0E946D0A892B79F485
:100E6000ED2FFC2F80E090E0DC01A056BE4F2C91CE
:100E70002193019686309105B9F781E001C080E0A9
:100E8000DF91CF91089520E030E0FC014191CF0146
:100E9000F901E056FE4F40832F5F3F4F263031056A
:100EA000A1F708950F931F93CF93DF93C42FD22FF1
:100EB000FC0182818823C9F04093A8010E94FB179E
:100EC0009093A7018093A60180E28C0F883008F0F0
:100ED00057C0C77081E001C0880FCA95EAF7DF915B
:100EE000CF911F910F910C942E0D8091A801481362
:100EF00030C08091A6019091A7010E940718883CFC
:100F0000910538F510E21D0FCD17B9F080E28C0F76
:100F1000883040F4C77081E001C0880FCA95EAF7B5
:100F20000E94350D183028F581E09D2F977001C083
:100F3000880F9A95EAF70E942E0D802F0E941B0DB4
:100F40001830F0F4D77081E001C0880FDA95EAF725
:100F50000AC080E28C0F883098F4C77081E001C02D
:100F6000880FCA95EAF7DF91CF911F910F910C94EA
:100F7000350D802FDF91CF911F910F910C941B0D98
:100F8000DF91CF911F910F9108950F939C01CB0199
:100F9000243F4CE5340731F188F4293DFCE53F0757
:100FA000D9F02A3D4CE5340779F1283D3C45A9F5B7
:100FB00006E221EE41EE68ED7CE52BC0263FFCE524
:100FC0003F07E1F0A8F0273F3C4539F507E225EE61
:100FD00046EE67EF7CE51DC007E225EE45EE69EDC4
:100FE0007CE517C006E221EE40EE64EF7CE511C01F
:100FF00007E225EE44EE65EF7CE50BC006E221EE4C
:1010000042EE66EF7CE505C008E221E045EE6AEDC0
:101010007CE50E94520780E008C0FC0182818823A1
:1010200019F01092A80101C081E00F910895CF93AB
:10103000DF93EC01FB018281882309F41FC1C230D8
:10104000FCE5DF0708F41BC1C6319CE5D90738F081
:101050009E012B5F3C452930310508F010C10E94EC
:101060008A169093760280937502C031ECE5DE0714
:1010700009F4C3C008F041C0C8308CE5D80709F4B2
:101080009AC0F0F4C430ECE5DE0709F487C068F4D8
:10109000C2308CE5D80709F477C0C330DC4509F0CD
:1010A000E3C080917502826076C0C630ECE5DE0751
:1010B00009F46EC008F07BC08091750288606BC037
:1010C000CC308CE5D80709F485C068F4CA30ECE56B
:1010D000DE0709F474C008F079C00E94BE0F809149
:1010E0007502806858C0CE308CE5D80709F476C008
:1010F00008F07FC0809175028BC0CC3FECE5DE0725
:1011000009F44FC018F5C3318CE5D80709F47DC048
:1011100078F4C131ECE5DE0709F473C0C231DC4577
:1011200009F0A2C00E94BE0F809175028F7733C074
:10113000C5318CE5D80709F472C008F486C0CB3FEE
:10114000DC4509F091C0809176023EC0C115FDE5F5
:10115000DF0709F45FC058F4CE3F9CE5D90709F4D6
:1011600044C008F43FC08091760282602DC0C23036
:10117000FDE5DF0709F475C008F45DC0C330DD4547
:1011800009F072C080E06EC080917502816003C07A
:101190008091750280618093750266C080917502AE
:1011A00011C0809176028260809376025DC080914A
:1011B00075028062F0CF809175028064ECCF8091DF
:1011C000750288608460E7CF8160EECF8091750200
:1011D0008E7FE1CF809175028D7FDDCF809175028A
:1011E000877FD9CF8091760218C0809176028D7F5B
:1011F000DBCF809175028F7ECECF809175028F7D7F
:10120000CACF809175028F7BC6CF80917502877F90
:101210008B7FC1CF809176028D7F8E7FC5CF8091ED
:10122000750282FB222720F991E0922790FB82F938
:1012300090FB83F9B0CF80917602982F90959170B2
:101240008E7F892B90FB81F9AFCF0E94BE0F8091DA
:10125000750287FB222720F991E0922790FB87F9FE
:101260009ACF81E00E9420178091750290917602BA
:101270000E949B160E94BE0F80E001C081E0DF91BA
:10128000CF910895CF93DF9386319C4541F5EB01D3
:101290000E94C615982F8A812091090130910A0178
:1012A000882379F09A7A81E009F480E08093A9019B
:1012B000911102C069E201C065E3C9010E9467178C
:1012C0000AC08091A901811102C069E201C065E3F1
:1012D000C9010E9469170E94141680E001C081E0D4
:1012E000DF91CF9108958EE1489B02C08150E1F7D4
:1012F000489BFECF0895589880E28A95F1F7589A56
:101300000895FC012AE02A95F1F728E090E080E0BA
:1013100031E040E14A95F1F7880F489B02C08160B7
:10132000932700C0000040E14A95F1F7215089F76A
:1013300020E12A95F1F729B100C0000030E13A958B
:10134000F1F7217092272081920F90830895EF92F8
:10135000FF920F931F93CF93DF931F92CDB7DEB70A
:1013600019828C017C01E60EF11C0E151F0551F04F
:101370000E947309CE0101960E948109F8018193B0
:101380008F01F3CF81E09981911180E00F90DF917F
:10139000CF911F910F91FF90EF9008959093AB0123
:1013A0008093AA01509A589A08959093AB01809324
:1013B000AA015098589AE89AE9E6F0E080818C7F7B
:1013C00080830895615091E001C0990F6A95EAF712
:1013D00020E031E0992361F0492F482319F0589A11
:1013E000232701C0589840E24A95F1F79695F2CF2D
:1013F000222311F0589A01C0589880E28A95F1F79B
:1014000058980895FF920F931F93CF93DF93EC01A9
:101410008C01060F111DC017D10741F0F9900E94F1
:101420007B0968E08F2D0E94E209F5CFDF91CF9113
:101430001F910F91FF9008951F920F920FB60F9278
:1014400011242F933F934F935F936F937F938F93C9
:101450009F93AF93BF93CF93DF93EF93FF935898EE
:10146000509AC091AA01D091AB016D81662321F001
:101470008E819F810E94020A0E947B0980E18A95E9
:10148000F1F758985098589A80E18A95F1F76A8157
:10149000662351F08B819C810E94A709E881F98124
:1014A000811104C082E003C0E881F98188E0808373
:1014B0000E947309FF91EF91DF91CF91BF91AF919E
:1014C0009F918F917F916F915F914F913F912F915C
:1014D0000F900FBE0F901F901895CF93DF93C09180
:1014E000AA01D091AB01F894509A589885E08A955A
:1014F000F1F700005098589A80E28A95F1F7489BDE
:101500000AC0509A589AE881F98181E080837894E2
:1015100081E090E02CC06D81662381F08E819F81F7
:101520000E94A70981110AC0509A589AE881F9814E
:1015300082E08083789482E090E019C00E94730971
:1015400080E28A95F1F75898509A80E18A95F1F7F0
:101550006A81662321F08B819C810E94020A0E948D
:101560007B09E881F9811082789480E090E0DF9136
:10157000CF9108959093B1018093B0010895E091C7
:10158000B001F091B101309721F00190F081E02D90
:10159000099480E00895E091B001F091B101309795
:1015A00021F00280F381E02D09940895E091B001CB
:1015B000F091B101309739F022E0DC012C930480E6
:1015C000F581E02D099408952091AE013091AF018D
:1015D0002817390771F09093AF018093AE01E09125
:1015E000B001F091B101309721F00680F781E02D34
:1015F000099408952091AC013091AD012817390765
:1016000071F09093AD018093AC01E091B001F09145
:10161000B101309721F00084F185E02D09940895FF
:1016200085B7806885BF85B7806885BF08950C94AD
:10163000EC0608950C94190B0C94190B0C941C0BCC
:101640000C94190B0C94200B0C94190B0E94100B8A
:101650000E94240B0C94220B0E94F2170E94C805D2
:101660000E944D180C941E0BAF92BF92CF92DF9246
:10167000EF92FF920F931F93CF93DF93CDB7DEB717
:101680002A970FB6F894DEBF0FBECDBF0E941A0B8B
:101690000E94190B0E942F060E94170B811111C086
:1016A0008FEF89838A831B820E94FB178160782FCA
:1016B0009D838C8349815A816B818D810E94D00BDF
:1016C00040C083EBA82E81E0B82E00E010E0C02ED1
:1016D000802F0E949E05E82EF501D1905F01D8264B
:1016E00031F40F5F1F4F0C30110589F7D9CF80916E
:1016F0003A0281FD0E94A40580E0FF24F3949D2D11
:101700009F21D1F08E83CF82EF2081E009F480E029
:1017100088870E94FB178160782F9A8789874E817E
:101720005F8168858A850E94D00BF801ED54FE4FD9
:101730008081F826F08205C08F5FFF0C8630F9F6B5
:10174000D0CF0E94FC190E94BF0A9091B201891764
:10175000B1F00E94BF0A8093B2012A960FB6F894A6
:10176000DEBF0FBECDBFDF91CF911F910F91FF90D4
:10177000EF90DF90CF90BF90AF900C9487032A96A4
:101780000FB6F894DEBF0FBECDBFDF91CF911F9192
:101790000F91FF90EF90DF90CF90BF90AF900895A2
:1017A000CF93DF93CDB7DEB72B970FB6F894DEBF9C
:1017B0000FBECDBF4F83588769877A878B87DE013D
:1017C000119686E0FD0111928A95E9F785E0FE0108
:1017D000379601900D928A95E1F749815A816B8184
:1017E0007C818D819E810E94B1122B960FB6F89458
:1017F000DEBF0FBECDBFDF91CF910895FC01808188
:1018000091810E9487150895CF93882309F4A9C078
:10181000C82F8238C1F40E94BF0A81FDA2C069E3CB
:101820008091090190910A010E9467170E94141685
:101830002FEF81EE94E0215080409040E1F700C00E
:10184000000069E319C0833801F50E94BF0A80FDDA
:1018500088C063E58091090190910A010E94671791
:101860000E9414162FEF81EE94E0215080409040AA
:10187000E1F700C0000063E58091090190910A0141
:101880000E946917CF910C9414168438C1F40E94F9
:10189000BF0A82FD66C067E48091090190910A0148
:1018A0000E9467170E9414162FEF81EE94E02150DA
:1018B00080409040E1F700C0000067E4DDCF8CEF8E
:1018C0008C0F813AF8F48C2F0E949A1C811149C028
:1018D0006C2F8091090190910A010E943117882391
:1018E00049F06C2F8091090190910A010E946917BB
:1018F0000E9414166C2F8091090190910A010E9498
:101900006717C0CF80E28C0F883048F4C77081E041
:1019100001C0880FCA95EAF70E94C915B3CFEBE55D
:10192000EC0FE33040F4F0E0E357FE4F808190E0AD
:10193000CF910C94E40AE8E5EC0FE73150F4F0E0C5
:10194000EE0FFF1FE15AFE4F80819181CF910C94E1
:10195000FA0AC03F30F08C2F0E94F118CF910C94FE
:10196000DE19CF910895882309F464C0823879F490
:101970000E94BF0A81FF5EC069E3809109019091D6
:101980000A010E9467170E94141669E310C0833889
:10199000B1F40E94BF0A80FF4DC063E58091090148
:1019A00090910A010E9467170E94141663E58091C6
:1019B000090190910A010E9469170C941416843849
:1019C00079F40E94BF0A82FF35C067E48091090163
:1019D00090910A010E9467170E94141667E4E7CFEE
:1019E0009CEF980F913A10F4682FE1CF90E2980F96
:1019F000983050F4877091E001C0990F8A95EAF70A
:101A0000892F0E94CF15D9CF9BE5980F933020F4F2
:101A100080E090E00C94E40A98E5980F973120F468
:101A200080E090E00C94FA0A803F20F00E9459195F
:101A30000C94DE190895CF93C82F0E94040CC9336B
:101A400049F42FEF87EE93E0215080409040E1F77A
:101A500000C000008C2FCF910C94B30C882321F090
:101A60000E94C9150C9414160895882321F00E9431
:101A7000CF150C9414160895CF92DF92EF92FF9237
:101A80000F931F93CF93DF937C01062FC72FFC0189
:101A9000158112951F70D281D1110E94E6150E9406
:101AA000BF15882399F0DD2389F08C2F807F803447
:101AB00021F080E2800F883048F082E00E945E16BC
:101AC0000E94BF1591E0D82ED92601C0D12CCC2E72
:101AD000C2948FE0C8228C2D90E0FC01EA5AFF4F9F
:101AE0000C94F4238C2F807FCF70882311F0C29543
:101AF000C07FDD2399F0CC2309F48DC180E2800FF3
:101B0000883010F0011104C08C2F0E94C91503C049
:101B10008C2F0E94D9150E9414167DC1802F0E941F
:101B2000B30CCC2309F49CC180E2800F883010F004
:101B3000011104C08C2F0E94CF1503C08C2F0E946E
:101B4000DF150E9414168CC18C2F807FCF708032DD
:101B500011F0C295C07F002319F00130C9F022C0F6
:101B6000DD2371F0112341F0113031F40E94F91599
:101B70008C2B0E94011674C10E94F9158C2B1DC07C
:101B8000112319F0113009F46BC10E940A1625C007
:101B9000DD2321F0163008F063C10EC0153008F0C7
:101BA0005FC11BC0DD2361F0112331F0F701858196
:101BB00080FF31C18F7085838C2F0E942E0D50C104
:101BC000112359F0093309F037C1FFEF27EE83E005
:101BD000F15020408040E1F72DC18C2F0E94350D3F
:101BE0003FC18C2F86958695837019F0813061F006
:101BF00037C1DD2321F0802F9C2F937002C080E03D
:101C000090E00E94E40A34C1DD2321F0802F9C2F54
:101C1000937002C080E090E00E94FA0A29C1802FF0
:101C2000DD2319F00E94F11802C00E9459190E9488
:101C3000DE191EC18C2F837009F045C0D11114C16B
:101C4000402F429546954770440F440F602F6F70A8
:101C5000862F90E0A0E0B0E0042E04C0880F991F0A
:101C6000AA1FBB1F0A94D2F704FF10C00FE010E0B8
:101C700020E030E004C0000F111F221F331F4A95DF
:101C8000D2F7009510952095309503C000E010E044
:101C90009801C695C695C370BC01CD01602B712B10
:101CA000822B932BC23049F058F4C13019F00E94B6
:101CB0000214DAC00E94F013D7C00E941414D4C0DA
:101CC0000E94EE13D1C0DD2319F08C2F817001C06A
:101CD0008695882309F4C8C0402F429546954770E1
:101CE000440F440F602F6F70862F90E0A0E0B0E0AB
:101CF000042E04C0880F991FAA1FBB1F0A94D2F795
:101D000004FF10C00FE010E020E030E004C0000F3E
:101D1000111F221F331F4A95D2F700951095209569
:101D2000309503C000E010E09801C695C695C370D9
:101D3000BC01CD01602B712B822B932BC23049F05B
:101D400058F4C13019F00E94C7148EC00E94B51417
:101D50008BC00E94D91488C00E94281485C0CF70FF
:101D6000DD2339F08C2F0E944E14802F0E942E0DFF
:101D70007BC0802F0E94350D8C2F0E946F1474C081
:101D8000023F01F128F4003F41F0013FA1F03FC0C4
:101D9000033FF9F0043F39F13AC0DD2341F015303B
:101DA00008F05EC08C2F8F710E94941459C01630B9
:101DB00008F056C0F7CFDD2339F08C2F8F710E94C9
:101DC0004E144EC0DD23C9F38C2F8F710E946F1407
:101DD00047C0DD2329F08C2F8F710E94391440C039
:101DE0000E9434143DC0DD2349F0CF718C2F0E9436
:101DF0004E1463E08C2F0E94491632C081E00E948D
:101E00005E16123068F182E00E945E1629C0DD2362
:101E100031F0112391F2802F0E94040C21C0112374
:101E200099F2093349F49FEFE7EEF3E09150E04077
:101E3000F040E1F700C00000802F0E94B30C10C0FA
:101E40004C2F4F70602FC7010E9490030E945F13B8
:101E50000FC04C2F4F70602FC7010E94930308C022
:101E600088EF8C0D843020F40E94BF0A0E94870303
:101E7000DD20C9F00E94BB1580FD15C0F70112825C
:101E80000E94B5150E944E14C7010E94740F0E9453
:101E9000B515DF91CF911F910F91FF90EF90DF90DB
:101EA000CF900C946F14DF91CF911F910F91FF9001
:101EB000EF90DF90CF9008950F931F93CF93DF9310
:101EC000EC01688179818A810E9492158C010E94BF
:101ED000EB140E94DC13B801CE010E943C0DDF918F
:101EE000CF911F910F910895CF93DF93EC019881CB
:101EF00089812B813C81232B31F08F3F31F481E0AC
:101F00009F3F19F403C081E001C080E080FD19C04B
:101F1000CE010E94430381110CC00E94BF1588238B
:101F200081F08A81882369F082E0DF91CF910C945F
:101F30005E16CE010E945C0FCE01DF91CF910C9412
:101F40001E03DF91CF9108950E94E6150E94F615B9
:101F50000E9414160E940F1B0E94DE1980E090E080
:101F60000E94E40A80E090E00C94FA0A8091090152
:101F700090910A010E946B170C94A40F0E94D61531
:101F80000C94B60FE92FE295EF704E2F50E0FA0156
:101F90003297EE30F105B0F4EA59FF4F0C94F42378
:101FA000803F91F018F4883E68F40EC0843F51F4ED
:101FB0000BC0883E48F0813F29F406C093FB882778
:101FC00080F9089580E0089581E008950E948715C2
:101FD0000E94C20F0895CF93DF9300D000D01F92CC
:101FE000CDB7DEB70F900F900F900F900F90DF914D
:101FF000CF910895CF93DF9300D000D000D0CDB71C
:10200000DEB726960FB6F894DEBF0FBECDBFDF91C8
:10201000CF9108951F93CF93DF93C091C00116E035
:102020008091C101C81799F0D0E01C9FF0011D9F5D
:10203000F00D1124EE53FE4F408151816281738176
:10204000848195810E94FA0F2196C770E9CFDF91B4
:10205000CF911F9108954091F2015091F301609149
:10206000F4017091F5018091F6019091F7010C94C3
:10207000FA0F2091C0019091C10156E02917A9F0F3
:1020800030E0529FF001539FF00D1124EE53FE4FAC
:102090007181761306C07081781303C07281741346
:1020A00006C02F5F3F4F2770E9CF80E0089581E0A1
:1020B00008950F931F93CF93DF938091F70182953B
:1020C0008F7009F05DC08091F401882309F458C035
:1020D0008091C0011091C1016091F2017091F301F2
:1020E000C091F501D091F60191E06F3F09F090E0C9
:1020F000292F06E0811709F443C0209721F07F3F84
:1021000021F030E003C031E001C0322F90E030FD1B
:1021100034C0089FF001099FF00D1124DF01AE5378
:10212000BE4F11963C911197371327C03C9136133F
:1021300024C012963C91129731111FC013964D91F5
:102140005C9114974C1B5D0B483C5105B0F4809199
:10215000F7018F7080618093F701E953FE4F808112
:102160008F708061808382EF91E00E94740FDF9115
:10217000CF911F910F910C940A1001968770BACFDE
:10218000DF91CF911F910F9108958F929F92AF92FF
:10219000BF92CF92DF92EF92FF920F931F93CF9354
:1021A000DF93CDB7DEB761970FB6F894DEBF0FBEF1
:1021B000CDBF8C0185E0F801DE011D9601900D92E6
:1021C0008A95E1F7D801DC901196EC901197129660
:1021D000CC909091F2012091F3014091F501509142
:1021E000F6014115510531F02F3F31F481E09F3F59
:1021F00019F403C081E001C080E080FD81C1F801D5
:102200008380948082EFA82E81E0B82EF090F401B4
:10221000B401641B750BFF2009F418C18091F7010C
:10222000382F307F683C710508F0D1C031118AC069
:10223000E21214C0D91212C0FC2CC1100FC08F7052
:1022400080618093F7010E942B10C5010E94740FDA
:102250008091F701D80115968C936FC18114910478
:1022600039F0BFEFEB1206C081E0DB1203C003C000
:1022700081E001C080E080FD03C081E08C2502C0C8
:1022800080E090E080FF10C04C2D6E2D8D2D0E94BF
:102290003910882349F082EF91E00E94740FE2EF39
:1022A000F1E086E0DF01A4C0892839F0BFEFEB122E
:1022B00006C081E0DB1203C003C081E001C080E002
:1022C00080FD03C081E08C2502C080E090E0E82F13
:1022D000E170BE2E80FF2CC04C2D6E2D8D2D0E94E6
:1022E0003910F82E811124C0DD86EE868D859E85FD
:1022F0000E948715292F22952F70223018F0243044
:1023000090F405C09F7059F0811109C016C19F70EB
:1023100031F0D80115969C91907F09F40EC1805E32
:10232000883008F40AC1C8010E94740FFB2C05C153
:10233000FC2CCC2009F401C18091F70181608093CD
:10234000F7015BC0E21206C0D91204C0C11002C07E
:10235000F801A0C0DD86EE868D859E850E94E60F81
:10236000882379F1CC2069F12091F701822F8295A1
:102370008F7090E0029774F08091F2019091F301D8
:1023800098878F8319869B868A862C87CE0107962D
:102390000E94740F86E0F801A2EFB1E001900D9267
:1023A0008A95E1F70E9459100E942B100DC0E21689
:1023B00031F1DD86EE868D859E850E94E60F8111C6
:1023C0002DC0C8010E94740FFF24F394B6C03111D0
:1023D000EECF782D998A888A4D2D5E2D6C2D8989B6
:1023E0000E94EB0F82EF91E00E94740F86E0D5010E
:1023F0001D928A95E9F70E942B10F12C9EC0D912EC
:10240000D8CFC110D6CFF8018583C8010E94740FC0
:1024100086E0D5011D928A95E9F78FC0CC2089F21C
:102420002091F701822F82958F7090E002970CF433
:10243000B1CF8091F2019091F3019A8389831B823D
:102440009D828C822E83CE010196A2CF683C7105BD
:1024500008F047C0FC2CCC2009F4B3CFE21230C006
:10246000D9122EC02091F70120FD21C0822F829524
:102470008F70482F50E041155105C9F0F8012583B0
:102480004F30510541F08F5F982F9295907F822FAA
:102490008F70892B8583C8010E94740F86E0F80134
:1024A000A2EFB1E001900D928A95E1F744C086E079
:1024B000F801A2EFB1E001900D928A95E1F73DC0DD
:1024C000DD86EE868D859E850E94E60F811162CFA6
:1024D0008091F70181608093F701C8010E94740F19
:1024E0002CC0782D998A888A4D2D5E2D6C2D898976
:1024F0000E94EB0F86E0D5011D928A95E9F71BC07B
:10250000CC2009F45ECFDD86EE868D859E850E9407
:10251000E60FF82E882309F454CF86E0F801A2EFE5
:10252000B1E001900D928A95E1F782EF91E00E946F
:10253000FE0B0E9459100E942B108F2D61960FB632
:10254000F894DEBF0FBECDBFDF91CF911F910F91E9
:10255000FF90EF90DF90CF90BF90AF909F908F90C3
:1025600008951F93CF93DF93CDB7DEB72C970FB6A7
:10257000F894DEBF0FBECDBF4F83588769877A8737
:102580008B879C87CE0107960E94C5108823D1F0C7
:102590009F8188852A853B85232B31F08F3F31F43D
:1025A00081E09F3F19F403C081E001C080E080FD1D
:1025B00047C04F81588569857A858B859C850E94A7
:1025C000FA0F3EC086E0FE013796DE0111960190BB
:1025D0000D928A95E1F7FF81E8856A857B85611513
:1025E000710531F0EF3F31F481E0FF3F19F403C092
:1025F00081E001C080E080FD23C02091C10130E076
:10260000C9010196877099274091C00150E0841755
:102610009507F1F1F983EA837D836C8396E0929FBD
:10262000D001939FB00D1124AE53BE4FFE013196E1
:1026300001900D929A95E1F78093C1010E940A10D2
:1026400016E08091C0019091C101891771F1189F26
:10265000C00111248E539E4F0E94C510882329F17A
:10266000E091C0011E9FF0011124EE53FE4F408106
:10267000518162817381848195810E94FA0F8091DA
:10268000C00190E00196877099278093C001D9CF4F
:102690000E94BE0F1092C1011092C001E2EFF1E062
:1026A00086E0DF011D928A95E9F72C960FB6F89423
:1026B000DEBF0FBECDBFDF91CF911F910895EF9286
:1026C000FF920F931F93CF93DF938C01892B09F413
:1026D0006CC0F12CEE24E394E8012196F80184917A
:1026E000843740F4843008F051C0813081F082306A
:1026F00019F15BC0853709F444C0A8F19CE7980F35
:10270000903708F052C08F770E94B30C41C00E5F23
:102710001F4FFE01849190E2980F983050F487701B
:10272000FE2D01C0FF0F8A95EAF78F2F0E94E91551
:1027300014C00E94040C2DC00E5F1F4FFE01849137
:1027400090E2980F983060F48770FE2D01C0FF0F63
:102750008A95EAF78F2F0E94EF150E94141619C070
:102760000E94B30C16C00E5F1F4FFE01C491CC2314
:1027700081F08FE99FE00197F1F700C00000C150A0
:10278000F6CF0E5F1F4FFE01F49003C00E94040CB1
:102790008E018F2D882309F49FCFEFE9FFE0319759
:1027A000F1F700C000008150F5CFDF91CF911F916C
:1027B0000F91FF90EF900895089508950C94DD1304
:1027C0000C94DE130E94E0136093290270932A0296
:1027D00080932B0290932C020C94A40F0C94E21380
:1027E0000F931F930091290210912A0220912B022E
:1027F00030912C02602B712B822B932B1F910F9108
:102800000C94E2130F931F930091290210912A0256
:1028100020912B0230912C02602371238223932379
:102820001F910F910C94E2130F931F9300912902B3
:1028300010912A0220912B0230912C0260277127DF
:10284000822793271F910F910C94E2130C94DD13B0
:102850000E9426146093250270932602809327021B
:10286000909328020C94A40F60E070E0CB010C94CC
:1028700028140F931F9341E050E060E070E08A015C
:102880009B0104C0000F111F221F331F8A95D2F72E
:10289000C901B8011F910F910C9428140F931F9335
:1028A00041E050E060E070E004C0440F551F661F37
:1028B000771F8A95D2F78091250290912602A091E8
:1028C0002702B09128028A019B01082B192B2A2B81
:1028D0003B2BC901B8011F910F910C9428140F9341
:1028E0001F9341E050E060E070E004C0440F551FCA
:1028F000661F771F8A95D2F7409550956095709521
:102900008091250290912602A0912702B091280281
:102910008A019B01082319232A233B23C901B801FB
:102920001F910F910C9428140F931F9341E050E0D6
:1029300060E070E004C0440F551F661F771F8A9542
:10294000D2F78091250290912602A0912702B091A2
:1029500028028A019B01082719272A273B27C9013A
:10296000B8011F910F910C9428140F931F9300919D
:102970002502109126022091270230912802602B17
:10298000712B822B932B1F910F910C9428140F9372
:102990001F93009125021091260220912702309169
:1029A000280260237123822393231F910F910C949B
:1029B00028140F931F930091250210912602209155
:1029C00027023091280260277127822793271F91C1
:1029D0000F910C9428140895292F220F920F990F0C
:1029E000890FE82FE695E695E695877051E001C0DE
:1029F000550F8A95EAF785E0E89FF0011124E85029
:102A0000FE4F20E030E070E04081CB01022E02C09A
:102A1000969587950A94E2F781708195842785239E
:102A2000842781932F5F3F4F2530310569F7089543
:102A3000292F220F920F990F890F682F669566959F
:102A40006695982F977085E0689FB001112440E04B
:102A500050E080E0FB01E40FF51FE850FE4F2081BD
:102A600030E0092E02C0369527950A94E2F72170CE
:102A70003327042E01C0220F0A94EAF7822B4F5FFE
:102A80005F4F4530510531F70895BF92CF92DF92E5
:102A9000EF92FF920F931F93CF93DF938C01C0901F
:102AA0002502D0902602E0902702F0902802809123
:102AB000290290912A02A0912B02B0912C02C82ADF
:102AC000D92AEA2AFB2ACFE1D0E0D701C6010C2E91
:102AD00004C0B695A795979587950A94D2F780FD7F
:102AE00004C0219790F7B12C07C0BC2EB8018C2FE1
:102AF0000E94AF030197A9F38B2DDF91CF911F9116
:102B00000F91FF90EF90DF90CF90BF900895CF93FB
:102B1000DF93EC010E944515BE010E94AF03DF91D7
:102B2000CF9108951F93CF93DF93EB019091BF0155
:102B3000992321F0CB010E94871513C0882349F007
:102B4000CB010E944515182F682FCE010E94EC146E
:102B500004C0CB010E941815182FBE01812F0E94BE
:102B6000AF03DF91CF911F91089580912D0285953C
:102B700085958595089580912D028770089590918F
:102B80002D02977081E009F480E008958091390268
:102B9000089590913902892B809339020895809588
:102BA0009091390289238093390208951092390255
:102BB000089590913802892B80933802089580956A
:102BC0009091380289238093380208951092380238
:102BD000089590913702892B80933702089580954C
:102BE000909137028923809337020895109237021B
:102BF000089580912E02089508950C94FC150C946C
:102C0000FD1590912E02981721F080932E020C94BE
:102C1000FF15089580912E02882329F010922E022C
:102C200080E00C94FF150895E0910901F0910A01EC
:102C3000809139028083E0910901F0910A0190812D
:102C400080913802892B8083E0910901F0910A017B
:102C5000908180913702892B808380912E02882376
:102C600081F0E0910901F0910A019081892B808324
:102C70008091090190910A010E94251781110E94FB
:102C80000A168091090190910A010C94CB0A0C94C8
:102C9000FC1598E0899F90011124262B20932D028A
:102CA0000E944E1480912D028595859585950C94F2
:102CB000471610922D0280E00C94471620912D02A9
:102CC0008095822380932D02982F977079F430E0BD
:102CD000482F082E000C550B2417350739F0859521
:102CE000859585950E946F140C945916089580E07F
:102CF00090E00E94162421E08C3E9E4F09F020E0D7
:102D0000822F089582E090E00C940E2483E090E0FE
:102D10000C940E24CF9384E090E00E940E24C82FE0
:102D200081E290E00E940E242C2F30E0A901582B64
:102D3000CA01CF910895CF93C92F682F84E090E006
:102D40000E941C246C2F81E290E0CF910C941C24F3
:102D5000AB01BC018FE090E00C942E24AB01BC01D0
:102D600083E190E00C942E2460E070E0CB010C94A1
:102D7000AE1660E070E0CB010E94A8160C94B41669
:102D80006CEE7EEF80E090E00E943A2460E082E00A
:102D900090E00E941C2460E083E090E00E941C24EC
:102DA0001092290210922A0210922B0210922C02E9
:102DB00060E084E090E00E941C2460E081E290E00A
:102DC0000E941C2460E085E090E00E941C2460E0EA
:102DD00086E090E00E941C246FEF87E090E00E9464
:102DE0001C2440E050E0BA0188E090E00E942E24CC
:102DF00060E08DE090E00E941C2440E050E0BA01C9
:102E000088E190E00E942E2460E087E190E00E943B
:102E10001C2440E050E0BA018CE190E00E942E2496
:102E200060E080E290E00E941C2440E050E0BA01A3
:102E300088E190E00E942E240C94B9160C94C016E0
:102E4000682F8EE090E00C941C24FC01329697E0F1
:102E500080E0915029F021912223D9F38F5FF9CF9F
:102E60000895662349F0FC01329608962191621775
:102E700029F0E817F907D1F780E0089581E0089577
:102E80009C01FC0132969FEF80E04191461789F04A
:102E90009F3F19F4411101C0982F8F5F8630A9F729
:102EA0009F3F39F0F901E90FF11D97FDFA95628313
:102EB000089508959C012A5F3F4FFC01428146130B
:102EC00001C01282019682179307B9F708950C94F6
:102ED00040170C945A17029626E0FC0111922A958D
:102EE000E9F7089508950C9472170C947217CF9314
:102EF0000E9475170E942F060E947317C0E08C2F46
:102F00000E949E05811104C0CF5FCC30C1F701C083
:102F100081E0CF9108950C9472170C948B170E9446
:102F20008D1780917B02843049F110923B0220E49E
:102F300088E190E00FB6F894A895809360000FBEEA
:102F40002093600080E00E9487030E948D1783B762
:102F5000817F846083BF83B7816083BF78948895C5
:102F600083B78E7F83BF0FB6F894A89580916000D9
:102F7000886180936000109260000FBE08950C94E9
:102F800072170E94BE0F0E94BF0A0E9487030C9412
:102F9000BF171F920F920FB60F9211248F939F931A
:102FA000AF93BF9380913B02811113C08091710256
:102FB00090917202A0917302B09174024196A11D8A
:102FC000B11D8093710290937202A0937302B0932B
:102FD0007402BF91AF919F918F910F900FBE0F9090
:102FE0001F90189582E084BD93E095BD9AEF97BD40
:102FF00080936E0008952FB7F8948091710290919C
:103000007202A0917302B09174022FBF08959C01C7
:103010004FB7F8948091710290917202A09173025F
:10302000B09174024FBF821B930B089578941F9246
:103030000F920FB60F9211248F939F93AF93BF936C
:103040008091710290917202A0917302B09174020A
:103050000196A11DB11D8093710290937202A093FD
:103060007302B0937402BF91AF919F918F910F90B3
:103070000FBE0F901F90189587E797E79093010870
:10308000809300089AE088E10FB6F894A8958093A1
:1030900060000FBE90936000FFCF0E9477168111F1
:1030A00002C00E941E170E94821680933A020E945C
:1030B0008A1690937602809375020E948616682F76
:1030C00070E080E090E00E94EE1360912502709124
:1030D000260280912702909128020C942614809158
:1030E000440280FF0BC060910F0185E0689FB00132
:1030F000112475956795759567952BC081FF09C05B
:1031000060910F0185E0689FB00111247595679566
:1031100020C082FF07C060910F0185E0689FB00169
:10312000112417C0909143029923D1F060910E01B0
:10313000961788F720910F0185E0289F90011124B0
:10314000929FA001939F500D112470E0CA010E942C
:10315000E0236038710540F46115710519F406C06B
:1031600065E070E0862F08958FE7089581E0089567
:103170008091440280FF08C060910C0170E0759559
:1031800067957595679521C081FF06C060910C0118
:1031900070E07595679519C082FF04C060910C01BD
:1031A00070E010C090914202992399F060910B0158
:1031B0009617A0F780910C01899FC001112470E03F
:1031C0000E94E0236038710540F46115710519F41F
:1031D00006C061E070E0862F08958FE7089581E0D2
:1031E0000895803F21F40E946F18819504C0813FAB
:1031F00029F40E946F18809348020895823F21F4B9
:103200000E946F18819504C0833F29F40E946F18B3
:10321000809347020895893F19F40E94B81805C0A9
:103220008A3F31F40E94B81881958093490208952D
:103230008B3F21F40E94B818819504C08C3F29F47B
:103240000E94B81880934A020895843F21F4809127
:103250004602816017C0853F21F48091460282605A
:1032600011C0863F21F48091460284600BC0873FE5
:1032700021F480914602886005C0883F31F4809136
:10328000460280618093460208958D3F21F480912B
:10329000440281600BC08E3F21F480914402826021
:1032A00005C08F3F29F480914402846080934402DA
:1032B0000895803F39F48091480287FF6AC01092D8
:1032C000480267C0813F29F4809148021816BCF378
:1032D00060C090914702823F29F497FF5AC0109234
:1032E000470257C0833F19F41916CCF352C090918E
:1032F0004902893F31F419160CF04BC01092490273
:1033000048C08A3F19F497FF44C0F8CF8B3F39F487
:1033100080914A0287FF3DC010924A023AC08C3F1A
:1033200029F480914A021816BCF333C0843F21F47B
:10333000809146028E7F17C0853F21F4809146021E
:103340008D7F11C0863F21F4809146028B7F0BC098
:10335000873F21F480914602877F05C0883F31F482
:10336000809146028F7E8093460213C08D3F21F4E8
:10337000809144028E7F0BC08E3F21F480914402E5
:103380008D7F05C08F3F29F4809144028B7F80930D
:10339000440280914702811106C080914802811148
:1033A00002C01092430280914902811106C08091AF
:1033B0004A02811102C01092420208950E94FB1736
:1033C00020914702211104C020914802222321F0BC
:1033D000909341028093400220914902211104C040
:1033E00020914A02222321F090933F0280933E02D3
:1033F00085E492E00C94D60AEF92FF920F931F930C
:10340000CF93DF9300D000D000D0CDB7DEB786E0F9
:10341000E5E4F2E0DE01119601900D928A95E1F764
:10342000E0904702F09048020091490210914A0250
:1034300010924702109248021092490210924A02DA
:10344000E11003C0FF2009F45DC08091400290911B
:1034500041020E940718AC0190914302992339F070
:103460002091100130E02417350758F04BC020910F
:103470003D028AE0289F900111242417350718F097
:1034800041C09F3F19F09F5F90934302EE2061F08F
:103490000E946F181E1414F09FEF01C091E0989FD6
:1034A000902D112490934702FF2061F00E946F1825
:1034B0001F1414F09FEF01C091E0989F902D1124EC
:1034C00090934802309147023323E1F02091480263
:1034D0002223C1F045EB3403C0011124992319F0D4
:1034E0009093470203C081E08093470235EB2303AA
:1034F000C0011124992319F09093480203C081E080
:1035000080934802011103C0112309F45DC080912A
:103510003E0290913F020E940718AC019091420236
:10352000992339F020910D0130E02417350758F028
:103530004BC020913C028AE0289F9001112424175F
:10354000350718F041C09F3F19F09F5F90934202EA
:10355000002361F00E94B818101614F09FEF01C00C
:1035600091E0989F902D112490934902112361F0CE
:103570000E94B818111614F09FEF01C091E0989FB7
:10358000902D112490934A02309149023323E1F0A7
:1035900020914A022223C1F045EB3403C0011124DB
:1035A000992319F09093490203C081E08093490266
:1035B00035EB2303C0011124992319F090934A029B
:1035C00003C081E080934A028091470281110BC0C1
:1035D00080914802811107C080914902811103C086
:1035E00080914A0281110E94DE19EB82FC820D83D8
:1035F0001E8386E0FE013196A5E4B2E001900D92B3
:103600008A95E1F726960FB6F894DEBF0FBECDBFC0
:10361000DF91CF911F910F91FF90EF900895E5E416
:10362000F2E086E0DF011D928A95E9F710924302ED
:1036300010924202109244020895833081F128F4DE
:10364000813059F08230D1F00895853009F449C0B5
:10365000B8F1863009F456C0089580913D02262FB6
:1036600030E0280F311D2F3F310524F4680F60939F
:103670003D0208958FEF80933D02089580911001DF
:10368000262F30E0280F311D2F3F310524F4680F1D
:103690006093100108958FEF809310010895809139
:1036A0000F01262F30E0280F311D2F3F310524F464
:1036B000680F60930F0108958FEF80930F010895B5
:1036C00080910E01262F30E0280F311D2F3F31054C
:1036D00024F4680F60930E0108958FEF80930E011C
:1036E000089580910C01262F30E0280F311D2F3FC7
:1036F000310524F4680F60930C0108958FEF8093D7
:103700000C01089580910B01262F30E0280F311D08
:103710002F3F310524F4680F60930B0108958FEF5C
:1037200080930B010895833011F128F4813049F022
:10373000823091F00895853081F120F18630C1F119
:10374000089580913D02681720F4861B80933D0206
:10375000089510923D02089580911001681720F499
:10376000861B809310010895109210010895809196
:103770000F01681720F4861B80930F0108951092A3
:103780000F01089580910E01681720F4861B809325
:103790000E01089510920E01089580910C01681792
:1037A00020F4861B80930C01089510920C0108955B
:1037B00080910B01681720F4861B80930B010895FC
:1037C00010920B0108950F931F9341E050E060E0C9
:1037D00070E08A019B0104C0000F111F221F331FDC
:1037E0008A95D2F7C901B8010E94EE131F910F917B
:1037F0000C94BE0F8B3109F468C058F58B3009F476
:1038000086C078F4863009F445C020F4853009F488
:103810004BC07FC0873009F44AC0883009F477C0B4
:1038200078C0803109F464C068F48E3009F071C04A
:1038300080913A0282FB222720F991E0922790FBA7
:1038400082F94CC0863109F462C0893109F45FC045
:1038500060C08A32E1F060F4873209F455C028F480
:103860008E3108F456C08D5150C08932E9F051C0F4
:10387000833450F48A3308F045C0853309F444C0DA
:10388000883309F444C045C08334F1F142C00E943A
:103890001E173DC080913A02817F8E7F80933A024D
:1038A00081E080934C0208950E94340330C08091DF
:1038B0003A02982F9095917090FB80F980933A028C
:1038C000911125C0897F877F10C080913A0281FBCA
:1038D000222720F991E0922790FB81F980933A0208
:1038E0009923A9F080913A02816080933A020FC037
:1038F00080913A0283FB222720F991E0922790FBE6
:1039000083F9ECCF895301C080E00E94E31B81E082
:10391000089580E0089580E008950C948B1C8E51EA
:103920008A3030F4E82FF0E0E057FE4F80810895B0
:1039300080E00895CF93C82F80914C02813051F0E0
:1039400018F0823099F17BC00E94C615823209F0CE
:1039500078C004C00E94C615823261F48C2F0E9488
:103960008D1C811104C08C2F0E94FA1B1DC081E0A8
:1039700090E01AC08C2F0E948B1C811114C0C4319E
:1039800079F048F4CB3079F0C03109F05EC082E0C4
:1039900080934C0208C0C93219F0C83321F055C0D9
:1039A00010924C0252C081E0817051C0C93279F14D
:1039B00008F5C43161F1A0F4C73009F044C0109299
:1039C0003D0284E180931001C0930F018CE380934A
:1039D0000E0188E080930C0188E280930B0133C0D4
:1039E00082EE8C0F863078F58C2F0E948F1C80938E
:1039F0004B0229C0CE34E9F020F4CB3421F56AE043
:103A000013C0C13579F0C235F1F461E00DC0809189
:103A10004B02882319F010924B0215C081E080936D
:103A20004C0215C061E006C080914B020E941D1B34
:103A30000AC06AE080914B020E94931B04C010925E
:103A40004C0280E004C081E002C080E0ADCFCF91A5
:103A50000895809155020895CF93DF9300D01F926F
:103A6000CDB7DEB790917B02943019F589837B83C3
:103A70006A8382E08093E9008FEF9091E8008150A3
:103A800095FD06C095ED9A95F1F700008111F5CFEF
:103A90008091E80085FF0DC040E050E063E070E0F9
:103AA000CE0101960E94421F8091E8008E7780939C
:103AB000E8000F900F900F90DF91CF910895BC0117
:103AC00084E00C942C1DBC0183E00C942C1D22E09E
:103AD0002093E9002FEF3091E800215035FD06C01A
:103AE00035ED3A95F1F700002111F5CF2091E8006E
:103AF00025FF0BC040E050E066E070E00E94421FEE
:103B00008091E8008E778093E8000895CF93DF934B
:103B100021E02093E9002FEF3091E800215035FD9E
:103B200006C035ED3A95F1F700002111F5CF20914F
:103B3000E80025FF14C0EC0140E050E068E070E0D0
:103B40000E94421F8091E8008E778093E80088E011
:103B5000FE01ADE4B2E001900D928A95E1F7DF91AC
:103B6000CF91089580917A02811109C00E94D320DB
:103B70000E9430218091E20084608093E2000895E9
:103B800010927A020895089508950C94C11742E0A6
:103B900061EC81E00E944C2042E261EC82E00C94F6
:103BA0004C2080917D02833009F460C030F4813074
:103BB00071F0823009F499C008958A3009F485C003
:103BC0008B3009F46BC0893009F0A7C020C0809108
:103BD0007C02813A09F0A1C08091E800877F809340
:103BE000E8008091800290918102892B21F468E0A5
:103BF0008DE492E003C060E080E090E070E00E941D
:103C00008D1F8091E8008B778093E8000895809164
:103C10007C02813209F081C0809180029091810202
:103C2000029708F07AC08091E800877F8093E800CF
:103C30008091E80082FD05C080917B028111F8CF60
:103C40006CC02091F3008091F20090E0922B0297DB
:103C500029F48091F1008B7F813021F48091F10073
:103C6000809355028091E8008B7753C080917C024D
:103C7000813A09F052C08091800290918102892B93
:103C800009F04BC08091E800877F8093E800809125
:103C9000E80080FFFCCF80911B0136C080917C0240
:103CA0008132D9F58091800290918102892BA9F50A
:103CB0008091E800877F8093E8000E9481208091B6
:103CC0007E0280931B010C94BE0F80917C02813296
:103CD00021F58091E800877F8093E8000E94812091
:103CE00080917F0280935602089580917C02813AF0
:103CF000A1F48091E800877F8093E8008091E8003C
:103D000080FFFCCF809156028093F1008091E80003
:103D10008E778093E8000C948120089584B7877F84
:103D200084BF0FB6F894A895809160008861809355
:103D30006000109260000FBE90E080E80FB6F8942B
:103D400080936100909361000FBE0E94260B0E9439
:103D5000D3200E9430218091E20084608093E200B1
:103D600078940E94C5230E942C0B81E191E00E946F
:103D7000BA0A80917B02853069F40E948F17809186
:103D800079028823B1F30E947717882391F30E9468
:103D90002C1FEFCF0E94340B0E941A0B0E94190BAC
:103DA000E8CF0C94D31E292F332723303105C9F0D7
:103DB00060F42130310581F02230310509F044C032
:103DC0008BE390E02EE034E043C021323105E1F096
:103DD0002232310549F138C082E190E029E434E033
:103DE00037C099278130910549F028F0029761F595
:103DF000ECECF3E005C0EAE0F4E002C0EAEFF3E047
:103E0000849190E09F0124C06115710541F06130FB
:103E10007105D1F489E090E029E334E019C089E02C
:103E200090E020E234E014C06115710541F061308A
:103E3000710551F481E890E02BE534E009C080E49D
:103E400090E02CED34E004C080E090E020E030E031
:103E5000FA0131832083089580E189BD82E189BD23
:103E600009B400FEFDCF8091D8008F7D8093D800EB
:103E70008091E00082608093E0008091E00081FD0D
:103E8000FCCF0895CF92DF92EF92FF920F931F9392
:103E9000CF93DF93EC018B017A010E94A020811166
:103EA00033C0E114F10439F0F70180819181081BDE
:103EB000190BC80FD91FC12CD12C0115110519F1EF
:103EC0008091E80085FD16C08091E8008E77809390
:103ED000E800E114F10449F0F70180819181C80EF6
:103EE000D91ED182C08285E00FC00E94A020882305
:103EF00021F30AC089918093F10001501109FFEF6D
:103F0000CF1ADF0ADACF80E0DF91CF911F910F91B6
:103F1000FF90EF90DF90CF90089520918202309132
:103F200083022617370748F06115710539F420918F
:103F3000E8002E772093E80001C0B901FC0120E0E1
:103F40006115710579F180917B028823F1F185304B
:103F5000F1F18091E80083FD3CC08091E80082FD92
:103F60002EC08091E80080FFEBCF2091F30080917C
:103F7000F20090E0922B6115710551F088309105A7
:103F800038F421912093F100615071090196F3CF2B
:103F900021E0089709F020E08091E8008E77809377
:103FA000E800CECF2111CFCF0AC080917B028823B9
:103FB00061F0853061F08091E80083FD0AC0809156
:103FC000E80082FFF2CF80E0089582E0089583E068
:103FD000089581E00895209182023091830226178E
:103FE000370748F06115710539F42091E8002E7704
:103FF0002093E80001C0B901FC0120E061157105C2
:1040000091F180917B02882309F440C0853009F446
:104010003FC08091E80083FD3DC08091E80082FDB3
:104020002FC08091E80080FFE9CF2091F3008091BC
:10403000F20090E0922B6115710559F088309105DE
:1040400040F424912093F10031966150710901965A
:10405000F2CF21E0089709F020E08091E8008E7708
:104060008093E800CBCF2111CCCF0AC080917B0296
:10407000882361F0853061F08091E80083FD0AC0FB
:104080008091E80082FFF2CF80E0089582E00895F9
:1040900083E0089581E00895982F973068F5909314
:1040A000E900981739F07091EC002091ED005091E3
:1040B000F00003C0242F762F50E021FD02C09F5F47
:1040C000ECCF3091EB003E7F3093EB003091ED0070
:1040D0003D7F3093ED003091EB0031603093EB0089
:1040E0007093EC002093ED005093F0002091EE00CF
:1040F00027FDE5CF80E008958F708093E90081E08F
:10410000089580917C0287FF11C08091E80082FDB4
:1041100005C080917B028111F8CF11C08091E80029
:104120008B770BC080917B02882349F08091E80057
:1041300080FFF8CF8091E8008E778093E8000895A3
:104140002091E4003091E50095E64091EC00842F49
:10415000817040FF23C08091E80080FD1DC08091E8
:104160007B02882399F0853099F08091EB0085FDE2
:1041700011C04091E4005091E5002417350729F360
:10418000915011F09A01E1CF84E0089582E0089502
:1041900083E0089581E0089580E008954091E8006B
:1041A00042FFDDCF08950E9441210E944921E0EEA7
:1041B000F0E0808181608083E8EDF0E080818F779E
:1041C000808319BCA7EDB0E08C918E7F8C938081A9
:1041D0008F7E808310927A0208950F931F93CF935E
:1041E000DF930E9441210E944921C8EDD0E08881DF
:1041F0008F77888388818068888388818F7D888392
:1042000019BC10927B0210927702109279021092E0
:10421000780200EE10E0F80180818B7F8083888136
:104220008160888342E060E080E00E944C20E1EE03
:10423000F0E080818E7F8083E2EEF0E0808181601B
:104240008083808188608083F80180818E7F808375
:10425000888180618883DF91CF911F910F910895AC
:10426000E8EDF0E080818F7E8083E7EDF0E08081F3
:104270008160808384E082BF81E080937A020C9425
:10428000ED20E8EDF0E080818E7F80831092E200E7
:1042900008951092DA001092E10008951F920F9293
:1042A0000FB60F9211242F933F934F935F936F9309
:1042B0007F938F939F93AF93BF93EF93FF938091DF
:1042C000E10082FF0BC08091E20082FF07C0809175
:1042D000E1008B7F8093E1000E94C4238091DA008B
:1042E00080FF1FC08091D80080FF1BC08091DA0042
:1042F0008E7F8093DA008091D90080FF0DC080E12D
:1043000089BD82E189BD09B400FEFDCF81E08093C3
:104310007B020E94B21D05C019BC10927B020E9454
:10432000C01D8091E10080FF19C08091E20080FFF4
:1043300015C08091E2008E7F8093E2008091E200C0
:1043400080618093E2008091D80080628093D800E1
:1043500019BC85E080937B020E94C41D8091E1001E
:1043600084FF30C08091E20084FF2CC080E189BDD1
:1043700082E189BD09B400FEFDCF8091D8008F7D18
:104380008093D8008091E1008F7E8093E10080913E
:10439000E2008F7E8093E2008091E2008160809352
:1043A000E20080917702882311F084E007C08091B9
:1043B000E30087FD02C081E001C083E080937B02BF
:1043C0000E94C51D8091E10083FF29C08091E20019
:1043D00083FF25C08091E100877F8093E10082E028
:1043E00080937B02109277028091E1008E7F809310
:1043F000E1008091E2008E7F8093E2008091E200F4
:1044000080618093E20042E060E080E00E944C2006
:104410008091F00088608093F0000E94C31DFF919E
:10442000EF91BF91AF919F918F917F916F915F912C
:104430004F913F912F910F900FBE0F901F901895A5
:104440001F920F920FB60F9211242F933F934F9309
:104450005F936F937F938F939F93AF93BF93CF930C
:10446000DF93EF93FF93C091E900CF708091EC0050
:10447000D82FD17080FDD0E81092E9008091F00033
:10448000877F8093F00078940E9464221092E90064
:104490008091F00088608093F000CD2BCF70C093A6
:1044A000E900FF91EF91DF91CF91BF91AF919F9183
:1044B0008F917F916F915F914F913F912F910F90CD
:1044C0000FBE0F901F9018951F93CF93DF93CDB71A
:1044D000DEB7AA970FB6F894DEBF0FBECDBFECE7EC
:1044E000F2E08091F100819322E0E438F207C9F70D
:1044F0000E94D11D8091E80083FF2EC180917C0233
:1045000090917D02492F50E04A30510508F024C1B6
:10451000FA01EC58FF4F0C94F423803821F08238D4
:1045200009F01AC108C0809178029091790299230C
:1045300089F082600FC0809180028F70873008F010
:104540000BC18093E9008091EB0085FB882780F9FF
:104550001092E9009091E800977F9093E800809393
:10456000F1001092F100D1C0282F2D7F09F0F4C086
:10457000882319F0823061F0EFC080917E02813093
:1045800009F0EAC0933009F080E0809379022EC0F0
:1045900080917E0281112AC0809180028F702FEF5E
:1045A000280F263008F0D8C08093E9002091EB0056
:1045B00020FF1CC0933021F48091EB00806214C076
:1045C0009091EB0090619093EB0021E030E0A90125
:1045D00002C0440F551F8A95E2F74093EA001092FB
:1045E000EA008091EB0088608093EB001092E90074
:1045F0008091E800877F8093E8000E948120ACC012
:104600008111AAC010917E021F778091E30080780B
:10461000812B8093E3008091E800877F8093E800FE
:104620000E9481208091E80080FFFCCF8091E30010
:1046300080688093E300111102C082E001C083E032
:1046400080937B0289C08058823008F085C08091B9
:104650007E0290917F028C3D53E0950779F583E0CF
:104660008A838AE289834FB7F894DE01139620E0AB
:104670003EE051E2E32FF0E050935700E49120FF39
:1046800003C0E295EF703F5FEF708E2F90E0EA304D
:1046900010F0C79601C0C0968D939D932F5F243173
:1046A00049F74FBF8091E800877F8093E8006AE276
:1046B00070E0CE0101960E948D1F16C060918002AD
:1046C00070918102AE014F5F5F4F0E94D11EBC010D
:1046D000892B09F441C09091E800977F9093E800FE
:1046E00089819A810E94EB1F8091E8008B778093EB
:1046F000E80032C0803881F58091E800877F8093A0
:10470000E800809177028093F1008091E8008E7735
:1047100072CF811121C080917E0290917F029927F2
:104720000297D4F48091E800877F8093E80080911D
:104730007E02809377020E9481208091770281110E
:1047400006C08091E30087FD02C081E001C084E0E3
:1047500080937B020E94C71D8091E80083FF0AC0FE
:104760008091E800877F8093E8008091EB00806271
:104770008093EB00AA960FB6F894DEBF0FBECDBFB4
:10478000DF91CF911F9108950895CF9380917B027F
:104790008823A1F0C091E900CF709091EC00892F9F
:1047A000817090FD80E8C82B1092E9008091E800AC
:1047B00083FD0E946422CF70C093E900CF910895D9
:1047C00097FB072E16F4009407D077FD09D00E94BE
:1047D000FA2307FC05D03EF4909581959F4F0895EC
:1047E000709561957F4F0895EE0FFF1F0590F4912E
:1047F000E02D0994AA1BBB1B51E107C0AA1FBB1FD8
:10480000A617B70710F0A61BB70B881F991F5A955C
:10481000A9F780959095BC01CD010895F999FECF37
:1048200092BD81BDF89A992780B50895A8E1B0E0BE
:1048300042E050E00C944224262FF999FECF92BD1D
:1048400081BDF89A019700B4021639F01FBA20BD55
:104850000FB6F894FA9AF99A0FBE08950396272F87
:104860000E941D240E941C24252F0E941D24242FF9
:104870000C941D240196272F0E941D240C941C24A7
:10488000DC01CB01FC01F999FECF06C0F2BDE1BD10
:10489000F89A319600B40D9241505040B8F70895FF
:0448A000F894FFCFBA
:1048A400019F0100A00106A0012F022808643C0713
:1048B40014291D861D671D631D5F1D01E200E900AB
:1048C400EA00B500B600B700CD008301CC008A0130
:1048D40092019401210223022402250226022702C6
:1048E4002A02B300B4006F0070008182839466973B
:1048F400C63435F6F731333236000000000000E2EA
:1049040000E900EA00B500B600B700CD008301CC91
:10491400008A019201940121022302240225022625
:104924000227022A02B300B4006F00700081828360
:0A493400010203040506070809004C
:00000001FF
