:100000000C948B020C944F0F0C94D2020C94D202DD
:100010000C94D2020C94D2020C94D2020C94D20210
:100020000C94D2020C94D2020C9463220C943523CB
:100030000C94631D0C94D2020C94D2020C94D20244
:100040000C94D2020C94D2020C94D2020C94D202E0
:100050000C94D2020C94BC1D0C94D2020C94D202CB
:100060000C94D2020C94D2020C94D2020C94D202C0
:100070000C94D2020C94D2020C94D2020C94D202B0
:100080000C94D2020C94D2020C94D2020C94D202A0
:100090000C94D2020C94D2020C94D2020C94D20290
:1000A0000C94D2020C94D2020C94D202D212D2122C
:1000B0000413041351136F13901490147A130F1434
:1000C00020142014801490149014891430153015C5
:1000D0004215421539154215421542153015301595
:1000E0003E15421542153E15A223C923C124C9233A
:1000F000C12415243824C1248F249E24000000002C
:100100000000000000000000000014001A000800B9
:1001100015001700000004001600070009000A007F
:1001200000001D001B000600190005000000000073
:10013000000000000151E100000000000000005C30
:1001400000000000000000000000000000000000AF
:100150001C0018000C001200130000000B000D0022
:100160000E000F00330000001100100036003700B1
:10017000380000002C0002510000000000000000C8
:1001800000000000005C0000000000000000000013
:100190000000000000000000000029000000000036
:1001A0000451000000000255015504550855000097
:1001B00000001D081B0806081908000000000000C8
:1001C000000000000100E10000000000000000004D
:1001D000000000000000000000000000000000001F
:1001E00000004B0052004A004C000000000050008C
:1001F00051004F002A00000000004E0000004D009A
:10020000280000002C000351000000000000000046
:1002100000000000000000000000000000000000DE
:100220000000000000000000000029002602270254
:100230002E002E0200002B002F0230022D002D0276
:10024000000035002F0030003400340200000000B0
:10025000000000000351E100000000000000000069
:10026000000000000000000000000000000000008E
:100270002302240225020000310000001F0218554D
:1002800014551155125500002002210222020000CF
:100290001E0200002C000100000000000000000011
:1002A000000000000000000000000000000000004E
:1002B000000000000000000000001E001F002000E1
:1002C0002100220000000255015504550855440044
:1002D00000003A003B003C003D003E0000000000F2
:1002E000000000000100010000000000000000000C
:1002F00000000000000000000000000000000000FE
:100300002300240025002600270000004500185582
:1003100014551155125500003F00400041004200A5
:100320004300000001000100000000000000000088
:1003300000000000000000000000000000000000BD
:1003400000000000000000000000000000000000AD
:10035000000000000000000000000000000000009D
:10036000000000000000000000000000000000008D
:10037000000000000000000000000000000000007D
:10038000000000000000000000000000000000006D
:10039000F900F100ED00F200FD000000FA00EF00AE
:1003A000EE00F000FE000000000000000000000071
:1003B000FF0000000000000000000000000000003E
:1003C0000000000000000000000000002C034400BA
:1003D00061006300740079006C002D004D00610025
:1003E0006E00750066006F0072006D00200028002E
:1003F000350078003600290000000E0374007300F9
:1004000068006F0072007400000004030904090210
:100410003B00020100A0FA090400000103010100F1
:100420000921110100012240000705810308000A8B
:10043000090401000103000000092111010001224B
:100440007B000705820320000A1201100100000052
:10045000084D44363501000102000105010902A1E1
:100460000185020901A100050919012908150025C6
:1004700001950875018102050109300931158125B1
:100480007F95027508810609381581257F950175CC
:10049000088106050C0A38021581257F950175082B
:1004A0008106C0C005010980A101850319012AB791
:1004B00000150126B700950175108100C0050C09D3
:1004C00001A101850419012AA002150126A00295A7
:1004D0000175108100C005010906A101050719E099
:1004E00029E7150025019508750181029501750818
:1004F00081010507190029FF150026FF00950675E3
:1005000008810005081901290595057501910295D5
:100510000175039101C011241FBECFEFDAE0DEBFE9
:10052000CDBF04B603FE27C080919602909197023A
:10053000A0919802B09199028730904BA740B04BA0
:10054000D1F4109296021092970210929802109293
:10055000990214BE84B7877F84BF0FB6F894A8951C
:1005600080916000886180936000109260000FBEEF
:10057000E0E0F8E3099511E0A0E0B1E0E2EFFAE491
:1005800002C005900D92AA39B107D9F722E0AAE975
:10059000B1E001C01D92A639B207E1F70E949D1F8C
:1005A0000C9477250C9400000C94E50581E00895E7
:1005B00081E008950C94D80208950C94DC021F93F6
:1005C000CF93DF9300D000D01F92CDB7DEB7498321
:1005D0005A836B833091DE0189819A81311114C075
:1005E000662359F0222349F00E94A51A182F682F7C
:1005F00089819A810E944C1A03C00E94781A182F90
:1006000069817A81812F04C00E94A51A69817A814B
:100610000F900F900F900F900F90DF91CF911F913F
:100620000C94A203FC01262F4081518162817381C9
:1006300084810C94DF02CF93DF93EC0160E00E9491
:100640001203BE01DF91CF910C94DD020E94AD0533
:100650000C94D4020C94E30508950E941E150E9488
:100660002C032FEF84E39CE0215080409040E1F781
:1006700000C000000C94231E0F931F93CF93DF93B1
:100680008C0161E00E941203EC01B8010E94DA02C1
:100690008823F1F1B801CE010E94A40C8823C1F196
:1006A000B801CE010E94F60C882391F1B801CE0169
:1006B0000E94210E882361F1F8018281882309F1CB
:1006C000CB358DE5D807C1F050F4C115FCE5DF0747
:1006D00081F0CF3DDC45A9F40E94B01C19C0CC3597
:1006E000EDE5DE0761F0CD35DD4559F40E94381B9C
:1006F00008C00E942D030CC00E94411B02C00E9432
:10070000441BC801DF91CF911F910F910C94D60229
:1007100080E0DF91CF911F910F91089508950C947F
:100720008E0381E008950C949103CF93C82F0E940B
:100730008F038C2F0E949303CF91089580E090E067
:100740000895089528E4829FC0011124FC0126E049
:10075000729FE00DF11D1124E60FF11DEE0FFF1F3A
:10076000E450FF4F859194910895880F991FFC01E3
:10077000E453FC4F859194910895CF93DF930E94A9
:10078000A2030E94D504EC018115904508F041C0F8
:10079000C11580E4D80708F0D1C0C83ED10510F5D6
:1007A000C03ED10508F0FDC0C83AD10578F4C53A7D
:1007B000D10508F0A2C0C130D10509F4F2C008F497
:1007C000EEC0C430D10508F0ECC0E9C0CF3BD10584
:1007D00008F49BC0C03CD10508F4E1C0CE01805CA8
:1007E00091099EC0C11590E2D90758F4C11521E0C6
:1007F000D20708F0D6C0CD3ED10508F4D0C0D065F0
:10080000D0C0C11580E3D80708F08EC0CE019F701C
:1008100087C0C11595E5D90708F043C0C11524E587
:10082000D20708F0A2C0C11582E5D80708F5C115A6
:1008300091E5D90708F085C0CE0174E096958795BB
:100840007A95E1F783709C2F937021E030E002C02D
:10085000220F331F9A95E2F73C68382BCF70C6956C
:10086000C69580E2C89FE0011124C22BD32B99C00A
:100870009E01237033278C2F86958695C115D3450D
:1008800008F064C0C1E0D0E002C0CC0FDD1F2A95A3
:10089000E2F720E2829FC0011124C82BD92BDC682B
:1008A00080C0C11529E5D207A0F4C11588E5D80795
:1008B00008F060C0C11596E5D90708F070C08C2F0C
:1008C0000E9469058F71C82FD0E0DC2FCC27D06241
:1008D00068C0C1152AE5D20708F451C0CE01905670
:1008E0008115904208F05BC08D2F8F710E946905C1
:1008F000DD27D0628F71D82B54C0C55AD0E0C65BBB
:10090000DE4FC881D0E0D0644CC0C85AD0E0CC0FD4
:10091000DD1FC45EDE4F0990D881C02DD46441C074
:100920000E94B503EC013DC0CE019927D3FF03C05F
:10093000EC01D86C36C0EC01D06C33C0DF70D06AEB
:1009400030C0DC2FCC27C16FD06A2BC0C1E0D0E013
:1009500002C0CC0FDD1F2A95E2F720E2829FC00182
:100960001124C82BD92BDA681CC0DC2FCC27C46F0C
:10097000D06A17C0DC2FCC27C06FD06A12C08C2F72
:100980008F700E94690594E0D695C7959A95E1F716
:10099000CF70D0E0DC2FCC27D069C82B02C0C0E0DC
:1009A000D0E0CE01DF91CF9108958238910569F1B1
:1009B000B0F48133910509F46DC048F48932910592
:1009C00009F463C08A32910509F469C0089585333A
:1009D000910509F455C089339105B9F00895833E16
:1009E000910569F138F4803E9105B1F0823E9105A0
:1009F00009F10895863E9105A9F1873E9105B9F167
:100A0000843E910509F064C023C02091650220FD59
:100A10004FC021FD4DC008958091650280FD44C006
:100A20008091660280FF44C08091650284FD42C0CF
:100A300083EE4DC08091650282FF38C0F5CF809172
:100A4000650282FD33C08091660280FD31C0ECCF2B
:100A50008091660281FF32C08091650284FD2AC0C8
:100A600087EE35C08091650283FF26C0F5CF809167
:100A7000650283FD21C08091660281FD1FC0ECCF1D
:100A80008091650285FD1CC01DC08091650285FDB9
:100A900019C016C08091650286FD16C017C08091EE
:100AA000650286FD13C010C089E311C082EE0FC03D
:100AB00080EE0DC080E00BC086EE09C084EE07C05A
:100AC00089E205C085E303C08AE201C081E390E0CA
:100AD00008959091650292FF0DC0282F287128304B
:100AE00019F4877F846006C0282F2471243011F404
:100AF0008B7F886093FF0DC0282F2871283119F44F
:100B0000877E846106C0282F2471243111F48B7EE6
:100B100088612091660220FF0DC0382F387138306F
:100B200019F4877F816006C0382F3171313011F49C
:100B30008E7F886021FF0DC0282F2871283119F47D
:100B4000877E816106C0282F2171213111F48E7EAC
:100B5000886194FD877E089508950E94081C811184
:100B600002C00E94B01C0E94131C809359020E9474
:100B70001B1C90936602809365020E94AC050E9444
:100B8000171C682F70E080E090E00E944E19609181
:100B900044027091450280914602909147020C9464
:100BA0008619E82FF0E0ED58FD4F808108950895F3
:100BB00080EA8A95F1F7089500C008950C94D8054D
:100BC00008950C94E0050C94E1050C94E005F8946C
:100BD000E82FE295EF70F0E031A1282F2F7081E02F
:100BE00090E001C0880F2A95EAF7982F90959323FB
:100BF00091A392A1892B82A37894089508950C94CF
:100C0000FE05CF93DF930E948107809100018091C0
:100C10000001811102C096E001C090E09093800233
:100C200086E0891B80937F02C3E5D1E089910E9411
:100C3000E70581E0C935D807C9F7CDE4D1E089914E
:100C40000E94E70581E0C335D807C9F7E7E6F2E07F
:100C5000A3E7B2E083E792E011921D928E179F07FF
:100C6000D9F786E00E9430070E942603DF91CF91DA
:100C70000C948B070F931F93CF93DF9300D000D07A
:100C800000D0CDB7DEB70E9469076091800288234B
:100C900009F442C08E010F5F1F4F86E0F8011192E8
:100CA0008A95E9F7862F90E0B8018D589D4F0E94F4
:100CB0005E0E811116C080919C018F5F80939C0114
:100CC000863030F1E0917F02F0E0ED58FD4FD80121
:100CD000CE01079611921D92A817B907D9F711E016
:100CE00018C010929C01A0917F02B0E0AD58BD4F9A
:100CF000F8019E01295F3F4F10E081919C91981768
:100D000011F08C9311E01196E217F307B1F701C0CF
:100D100010E00E942A030DC070E06D587D4F809155
:100D20007F0290E08D589D4F0E94880E0E94FF0523
:100D300010E0812F26960FB6F894DEBF0FBECDBF10
:100D4000DF91CF911F910F9108958F929F92AF9253
:100D5000BF92CF92DF92EF92FF920F931F93CF93A8
:100D6000DF9383E5A82E81E0B82EC7E6D2E099E5AF
:100D7000E92E91E0F92E912C01E010E06501F501DA
:100D80008081F894E82FE295EF70F0E021A18F7058
:100D9000A80102C0440F551F8A95E2F7CA01922F9D
:100DA000982B91A392A18095892382A378940E9485
:100DB000DC05EDE4F1E020E030E0812C4191A42F4E
:100DC000A295AF70B0E090968C9190E04F7002C009
:100DD000959587954A95E2F780FD07C0802F022EF2
:100DE00001C0880F0A94EAF701C080E0882A2F5FCB
:100DF0003F4F2630310511F75FEFA51AB50AF6010E
:100E000080810E94E7050E94DE058881881619F01E
:100E1000888281E001C080E0982A2196EA14FB04D0
:100E200009F0ACCF6091800270E06D587D4F292DA4
:100E300046E087E692E00E9431070E943A06992038
:100E400011F081E090E0DF91CF911F910F91FF9021
:100E5000EF90DF90CF90BF90AF909F908F900895CC
:100E60000895FF920F931F93CF93DF938C01F62E7B
:100E7000D72FC42F222349F081E080939F010E9445
:100E8000951D90939E0180939D0180919F018823E1
:100E9000C1F080919D0190919E010E94AD1D069729
:100EA00080F0EF2DFD2FD8014C2F50E0CD01801B9D
:100EB000910B841795071CF48D918193F7CF1092B5
:100EC0009F01DF91CF911F910F91FF9008950C9496
:100ED000B21C8091A00181110DC00E94FA248111E1
:100EE00002C082E001C081E08093A001823011F451
:100EF0000E94F52481E09091A001913009F080E0FA
:100F000008950E946707809300010E94690781117C
:100F10000C94520E08950E946907811102C00C942E
:100F2000580E0895833081F128F4813059F08230D1
:100F3000D1F00895853009F449C0B8F1863009F43C
:100F400056C008958091A401262F30E0280F311D4E
:100F50002F3F310524F4680F6093A40108958FEFAB
:100F60008093A401089580910601262F30E0280F78
:100F7000311D2F3F310524F4680F60930601089559
:100F80008FEF80930601089580910501262F30E0B0
:100F9000280F311D2F3F310524F4680F60930501A0
:100FA00008958FEF80930501089580910401262F05
:100FB00030E0280F311D2F3F310524F4680F609376
:100FC000040108958FEF8093040108958091020138
:100FD000262F30E0280F311D2F3F310524F4680FF4
:100FE0006093020108958FEF80930201089580912C
:100FF0000101262F30E0280F311D2F3F310524F449
:10100000680F6093010108958FEF809301010895A7
:10101000833011F128F4813049F0823091F0089545
:10102000853081F120F18630C1F108958091A401CD
:10103000681720F4861B8093A40108951092A401E0
:10104000089580910601681720F4861B809306019D
:10105000089510920601089580910501681720F403
:10106000861B8093050108951092050108958091D3
:101070000401681720F4861B8093040108951092E0
:101080000401089580910201681720F4861B809363
:1010900002010895109202010895809101016817DC
:1010A00020F4861B80930101089510920101089598
:1010B0000F931F9341E050E060E070E08A019B01D4
:1010C00004C0000F111F221F331F8A95D2F7C901D8
:1010D000B8010E944E191F910F910C941E158B316F
:1010E00009F468C058F58B3009F486C078F486306E
:1010F00009F445C020F4853009F44BC07FC0873027
:1011000009F44AC0883009F477C078C0803109F406
:1011100064C068F48E3009F071C08091590282FB7E
:10112000222720F991E0922790FB82F94CC086316A
:1011300009F462C0893109F45FC060C08A32E1F00D
:1011400060F4873209F455C028F48E3108F456C093
:101150008D5150C08932E9F051C0833450F48A3344
:1011600008F045C0853309F444C0883309F444C00D
:1011700045C08334F1F142C00E94B01C3DC0809153
:101180005902817F8E7F8093590281E08093A20172
:1011900008950E942D0330C080915902982F909598
:1011A000917090FB80F980935902911125C0897F3D
:1011B000877F10C08091590281FB222720F991E09E
:1011C000922790FB81F9809359029923A9F080918D
:1011D00059028160809359020FC08091590283FBAC
:1011E000222720F991E0922790FB83F9ECCF8953D5
:1011F00001C080E00E94580881E0089580E00895D1
:1012000080E008950C9400098E518A3030F4E82F64
:10121000F0E0E15AFE4F8081089580E00895CF9379
:10122000C82F8091A201813051F018F0823099F1DD
:101230007BC00E94471B823209F078C004C00E9424
:10124000471B823261F48C2F0E940209811104C075
:101250008C2F0E946F081DC081E090E01AC08C2F77
:101260000E940009811114C0C43179F048F4CB30D8
:1012700079F0C03109F05EC082E08093A20108C01D
:10128000C93219F0C83321F055C01092A20152C0E2
:1012900081E0817051C0C93279F108F5C43161F142
:1012A000A0F4C73009F044C01092A40184E18093F7
:1012B0000601C09305018CE38093040188E08093CC
:1012C000020188E28093010133C082EE8C0F8630E8
:1012D00078F58C2F0E9404098093A10129C0CE3497
:1012E000E9F020F4CB3421F56AE013C0C13579F080
:1012F000C235F1F461E00DC08091A101882319F09D
:101300001092A10115C081E08093A20115C061E097
:1013100006C08091A1010E9492070AC06AE08091F4
:10132000A1010E94080804C01092A20180E004C03C
:1013300081E002C080E0ADCFCF9108958091AB01F4
:1013400080FF0BC06091050185E0689FB00111240A
:1013500075956795759567952BC081FF09C060915C
:10136000050185E0689FB00111247595679520C03F
:1013700082FF07C06091050185E0689FB0011124DC
:1013800017C09091AA019923D1F06091040196179A
:1013900088F72091050185E0289F90011124929FF4
:1013A000A001939F500D112470E0CA010E940725EF
:1013B0006038710540F46115710519F406C065E0E7
:1013C00070E0862F08958FE7089581E00895809159
:1013D000AB0180FF08C06091020170E075956795D0
:1013E0007595679521C081FF06C06091020170E08C
:1013F0007595679519C082FF04C06091020170E085
:1014000010C09091A901992399F06091010196175C
:10141000A0F780910201899FC001112470E00E9411
:1014200007256038710540F46115710519F406C08F
:1014300061E070E0862F08958FE7089581E00895B8
:101440008D3E21F40E949E09819504C08E3E29F4B0
:101450000E949E098093AF0108958F3E21F40E945F
:101460009E09819504C0803F29F40E949E098093C3
:10147000AE010895893F19F40E94E70905C08A3F2B
:1014800031F40E94E70981958093B00108958B3F64
:1014900021F40E94E709819504C08C3F29F40E9441
:1014A000E7098093B10108959FE0980F983078F490
:1014B00021E030E0A90102C0440F551F9A95E2F7E0
:1014C000CA019091AD01892B8093AD0108958D3FA4
:1014D00021F48091AB0181600BC08E3F21F480919B
:1014E000AB01826005C08F3F29F48091AB0184601D
:1014F0008093AB0108958D3E39F49091AF0197FF31
:1015000035C01092AF0159C08E3E29F49091AF01C1
:101510001916BCF32BC09091AE018F3E29F497FFB2
:1015200025C01092AE0149C0803F19F41916CCF3C2
:101530001DC09091B001893F29F41916BCF4109296
:10154000B0013BC08A3F19F497FF10C0F8CF8B3F22
:1015500039F49091B10197FF09C01092B1012DC0EB
:101560008C3F21F49091B1011916BCF39FE0980FC4
:10157000983080F421E030E0A90102C0440F551FEB
:101580009A95E2F7CA0180959091AD0189238093E5
:10159000AD0113C08D3F21F48091AB018E7F0BC054
:1015A0008E3F21F48091AB018D7F05C08F3F29F4E0
:1015B0008091AB018B7F8093AB018091AE01811153
:1015C00006C08091AF01811102C01092AA018091E2
:1015D000B001811106C08091B101811102C0109249
:1015E000A90108950E94951D2091AE01211104C00A
:1015F0002091AF01222321F09093A8018093A701AD
:101600002091B001211104C02091B101222321F0C9
:101610009093A6018093A5018CEA91E00C940910A7
:10162000EF92FF920F931F93CF93DF9300D000D0E0
:1016300000D0CDB7DEB786E0ECEAF1E0DE0111962E
:1016400001900D928A95E1F7E090AE01F090AF0124
:101650000091B0011091B1011092AE011092AF0152
:101660001092B0011092B101E11003C0FF2009F403
:101670005DC08091A7019091A8010E94AD1DAC01B1
:101680009091AA01992339F02091060130E02417A6
:10169000350758F04BC02091A4018AE0289F9001A3
:1016A00011242417350718F041C09F3F19F09F5FA0
:1016B0009093AA01EE2061F00E949E091E1414F07E
:1016C0009FEF01C091E0989F902D11249093AE015F
:1016D000FF2061F00E949E091F1414F09FEF01C0CB
:1016E00091E0989F902D11249093AF013091AE011D
:1016F0003323E1F02091AF012223C1F045EB340305
:10170000C0011124992319F09093AE0103C081E028
:101710008093AE0135EB2303C0011124992319F006
:101720009093AF0103C081E08093AF01011103C02A
:10173000112309F45DC08091A5019091A6010E943A
:10174000AD1DAC019091A901992339F020910301BD
:1017500030E02417350758F04BC02091A3018AE0F0
:10176000289F900111242417350718F041C09F3F8E
:1017700019F09F5F9093A901002361F00E94E7098F
:10178000101614F09FEF01C091E0989F902D112446
:101790009093B001112361F00E94E709111614F033
:1017A0009FEF01C091E0989F902D11249093B1017B
:1017B0003091B0013323E1F02091B1012223C1F037
:1017C00045EB3403C0011124992319F09093B00123
:1017D00003C081E08093B00135EB2303C0011124E5
:1017E000992319F09093B10103C081E08093B10176
:1017F0008091AE0181110BC08091AF01811107C0B2
:101800008091B001811103C08091B10181110E94CA
:10181000F20AEB82FC820D831E8386E0FE01319684
:10182000ACEAB1E001900D928A95E1F726960FB6E9
:10183000F894DEBF0FBECDBFDF91CF911F910F9106
:10184000FF90EF900895ECEAF1E086E0DF011D9251
:101850008A95E9F71092AA011092A9011092AB01A2
:1018600008950F931F93CF93DF93C42FD22FFC01C2
:1018700082818823C9F04093B4010E94951D909302
:10188000B3018093B20180E28C0F883008F057C01A
:10189000C77081E001C0880FCA95EAF7DF91CF9148
:1018A0001F910F910C9491128091B401481330C094
:1018B0008091B2019091B3010E94AD1D883C9105C9
:1018C00038F510E21D0FCD17B9F080E28C0F88308B
:1018D00040F4C77081E001C0880FCA95EAF70E9402
:1018E0009812183028F581E09D2F977001C0880F5D
:1018F0009A95EAF70E949112802F0E948812183060
:10190000F0F4D77081E001C0880FDA95EAF70AC0D9
:1019100080E28C0F883098F4C77081E001C0880F96
:10192000CA95EAF7DF91CF911F910F910C9498120D
:10193000802FDF91CF911F910F910C948812DF912E
:10194000CF911F910F9108950F939C01CB01243FDC
:101950004CE5340731F188F4293DFCE53F07D9F027
:101960002A3D4CE5340779F1283D3C45A9F506E2CE
:1019700021EE41EE68ED7CE52BC0263FFCE53F07FC
:10198000E1F0A8F0273F3C4539F507E225EE46EEA9
:1019900067EF7CE51DC007E225EE45EE69ED7CE5CD
:1019A00017C006E221EE40EE64EF7CE511C007E2CD
:1019B00025EE44EE65EF7CE50BC006E221EE42EE3B
:1019C00066EF7CE505C008E221E045EE6AED7CE5C6
:1019D0000E94310C80E008C0FC018281882319F04C
:1019E0001092B40101C081E00F910895CF93DF936D
:1019F000EC01FB018281882309F41FC1C230FCE5A0
:101A0000DF0708F41BC1C6319CE5D90738F09E01F9
:101A10002B5F3C452930310508F010C10E941B1C8A
:101A20009093660280936502C031ECE5DE0709F40D
:101A3000C3C008F041C0C8308CE5D80709F49AC08B
:101A4000F0F4C430ECE5DE0709F487C068F4C23076
:101A50008CE5D80709F477C0C330DC4509F0E3C052
:101A600080916502826076C0C630ECE5DE0709F43D
:101A70006EC008F07BC08091650288606BC0CC307E
:101A80008CE5D80709F485C068F4CA30ECE5DE07B8
:101A900009F474C008F079C00E941E158091650297
:101AA000806858C0CE308CE5D80709F476C008F0BD
:101AB0007FC0809165028BC0CC3FECE5DE0709F466
:101AC0004FC018F5C3318CE5D80709F47DC078F410
:101AD000C131ECE5DE0709F473C0C231DC4509F021
:101AE000A2C00E941E15809165028F7733C0C53158
:101AF0008CE5D80709F472C008F486C0CB3FDC45FA
:101B000009F091C0809166023EC0C115FDE5DF0776
:101B100009F45FC058F4CE3F9CE5D90709F444C0EE
:101B200008F43FC08091660282602DC0C230FDE59E
:101B3000DF0709F475C008F45DC0C330DD4509F066
:101B400072C080E06EC080916502816003C08091A8
:101B5000650280618093650266C08091650211C054
:101B6000809166028260809366025DC0809165020A
:101B70008062F0CF809165028064ECCF8091650235
:101B800088608460E7CF8160EECF809165028E7FB0
:101B9000E1CF809165028D7FDDCF80916502877FE7
:101BA000D9CF8091660218C0809166028D7FDBCF0D
:101BB000809165028F7ECECF809165028F7DCACFE6
:101BC000809165028F7BC6CF80916502877F8B7F76
:101BD000C1CF809166028D7F8E7FC5CF80916502D7
:101BE00082FB222720F991E0922790FB82F990FB5B
:101BF00083F9B0CF80916602982F909591708E7F77
:101C0000892B90FB81F9AFCF0E941E158091650250
:101C100087FB222720F991E0922790FB87F99ACF42
:101C200081E00E94BC1C80916502909166020E9436
:101C30002C1C0E941E1580E001C081E0DF91CF9135
:101C40000895CF93DF9386319C4541F5EB010E94C7
:101C5000471B982F8A8120910F0130911001882312
:101C600079F09A7A81E009F480E08093B5019111CE
:101C700002C069E201C065E3C9010E94031D0AC0F8
:101C80008091B501811102C069E201C065E3C9011B
:101C90000E94051D0E94991B80E001C081E0DF9138
:101CA000CF91089561E070E087E091E00C94010F1E
:101CB00061E070E087E091E00C94080FCF93DF9330
:101CC000D62FC72F0E94A00F892BF1F4ED2FFC2FE8
:101CD00080E090E0DC01A554BE4F2C912193019649
:101CE00086309105B9F70E94081EDC01CB010296EF
:101CF000A11DB11D8093B7019093B801A093B901C4
:101D0000B093BA0181E001C080E0DF91CF910895E6
:101D1000CF93DF93D62FC72F6091B7017091B80191
:101D20008091B9019091BA010E94EB1DED2FFC2F1B
:101D300080E090E02191DC01A554BE4F2C930196E8
:101D400086309105B9F7DF91CF9108958EE1489BD8
:101D500002C08150E1F7489BFECF0895589880E279
:101D60008A95F1F7589A0895FC012AE02A95F1F72F
:101D700028E090E080E031E040E14A95F1F7880FFB
:101D8000489B02C08160932700C0000040E14A9553
:101D9000F1F7215089F720E12A95F1F729B100C028
:101DA000000030E13A95F1F7217092272081920FDF
:101DB00090830895EF92FF920F931F93CF93DF9339
:101DC0001F92CDB7DEB719828C017C01E60EF11CA3
:101DD0000E151F0551F00E94A60ECE0101960E941D
:101DE000B40EF80181938F01F3CF81E099819111B5
:101DF00080E00F90DF91CF911F910F91FF90EF90B6
:101E000008959093C2018093C101509A589A089501
:101E10009093C2018093C1015098589AE89AE9E6DC
:101E2000F0E080818C7F80830895615091E001C053
:101E3000990F6A95EAF720E031E0992361F0492F84
:101E4000482319F0589A232701C0589840E24A9530
:101E5000F1F79695F2CF222311F0589A01C05898C5
:101E600080E28A95F1F758980895FF920F931F9397
:101E7000CF93DF93EC018C01060F111DC017D10722
:101E800041F0F9900E94AE0E68E08F2D0E94150F70
:101E9000F5CFDF91CF911F910F91FF9008951F9281
:101EA0000F920FB60F9211242F933F934F935F938E
:101EB0006F937F938F939F93AF93BF93CF93DF9352
:101EC000EF93FF935898509AC091C101D091C201ED
:101ED0006D81662321F08E819F810E94350F0E94C3
:101EE000AE0E80E18A95F1F758985098589A80E1A3
:101EF0008A95F1F76A81662351F08B819C810E945B
:101F0000DA0EE881F981811104C082E003C0E88122
:101F1000F98188E080830E94A60EFF91EF91DF9106
:101F2000CF91BF91AF919F918F917F916F915F9171
:101F30004F913F912F910F900FBE0F901F901895CA
:101F4000CF93DF93C091C101D091C201F894509A10
:101F5000589885E08A95F1F700005098589A80E2E9
:101F60008A95F1F7489B0AC0509A589AE881F981FE
:101F700081E08083789481E090E02CC06D816623BD
:101F800081F08E819F810E94DA0E81110AC0509AE1
:101F9000589AE881F98182E08083789482E090E029
:101FA00019C00E94A60E80E28A95F1F75898509ABF
:101FB00080E18A95F1F76A81662321F08B819C810B
:101FC0000E94350F0E94AE0EE881F981108278944C
:101FD00080E090E0DF91CF9108959093C8018093C5
:101FE000C7010895E091C701F091C801309721F031
:101FF0000190F081E02D099480E00895E091C701FF
:10200000F091C801309721F00280F381E02D09940E
:102010000895E091C701F091C801309739F022E0AE
:10202000DC012C930480F581E02D09940895209122
:10203000C5013091C6012817390771F09093C60188
:102040008093C501E091C701F091C801309721F05C
:102050000680F781E02D099408952091C301309105
:10206000C4012817390771F09093C4018093C3010C
:10207000E091C701F091C801309721F00084F1850B
:10208000E02D099408950E94A11D6093DA017093D8
:10209000DB018093DC019093DD016093D6017093A6
:1020A000D7018093D8019093D901089585B78068AE
:1020B00085BF85B7806885BF08950C94690708952A
:1020C0000C945F100C945F100C9462100C945F10D1
:1020D0000C9466100C945F100E94561086E09CE1F0
:1020E0000E94341E0E946A100C9468100E946010B6
:1020F0000C945F100E948C1D0E94E21D0E9401063C
:102100000C9464109F92AF92BF92CF92DF92EF92A5
:10211000FF920F931F93CF93DF93CDB7DEB72A972C
:102120000FB6F894DEBF0FBECDBF0E94A506811189
:102130000E9443108AECA82E81E0B82E00E010E047
:10214000902E802F0E94D105D82EF501C1905F01FD
:10215000C826B1F40F5F1F4F0C30110589F78FEFC0
:1021600089838A831B820E94951D8160782F9D83BD
:102170008C8349815A816B818D810E9420112FC0EF
:102180008091590281FD0E94D705E12CFF24F39430
:102190008C2D8F21F1F00E945D10882399F0EE8242
:1021A0009F82DF2081E009F480E088870E94951DEE
:1021B0008160782F9A8789874E815F8168858A85BB
:1021C0000E942011F801E653FE4F8081F826F0822C
:1021D00006C0E394FF0CF6E0EF12DACFBBCF0E940B
:1021E000100B0E94F20F9091C9018917B9F00E945B
:1021F000F20F8093C9012A960FB6F894DEBF0FBE86
:10220000CDBFDF91CF911F910F91FF90EF90DF90A5
:10221000CF90BF90AF909F900C9495032A960FB6E5
:10222000F894DEBF0FBECDBFDF91CF911F910F910C
:10223000FF90EF90DF90CF90BF90AF909F90089568
:10224000DF92EF92FF920F931F93CF93DF93CDB75F
:10225000DEB72B970FB6F894DEBF0FBECDBFF42EBE
:10226000052F162FE72ED82E61110E94671BFE0145
:10227000319686E0DF011D928A95E9F77E2D4F2D7C
:10228000502F612F8D2D9E810E9411182B960FB615
:10229000F894DEBF0FBECDBFDF91CF911F910F919C
:1022A000FF90EF90DF900895FC01808191810E9462
:1022B000E71A0895CF93882309F4A9C0C82F82385C
:1022C000C1F40E94F20F81FDA2C069E380910F0169
:1022D000909110010E94031D0E94991B2FEF81EE27
:1022E00094E0215080409040E1F700C0000069E395
:1022F00019C0833801F50E94F20F80FD88C063E5A4
:1023000080910F01909110010E94031D0E94991B62
:102310002FEF81EE94E0215080409040E1F700C023
:10232000000063E580910F01909110010E94051D4E
:10233000CF910C94991B8438C1F40E94F20F82FD56
:1023400066C067E480910F01909110010E94031D07
:102350000E94991B2FEF81EE94E021508040904025
:10236000E1F700C0000067E4DDCF8CEF8C0F813A0D
:10237000F8F48C2F0E940F09811149C06C2F8091B5
:102380000F01909110010E94CD1C882349F06C2F01
:1023900080910F01909110010E94051D0E94991BD0
:1023A0006C2F80910F01909110010E94031DC0CFEE
:1023B00080E28C0F883048F4C77081E001C0880F3C
:1023C000CA95EAF70E944A1BB3CFEBE5EC0FE33066
:1023D00040F4F0E0E956FE4F808190E0CF910C94FC
:1023E0001710E8E5EC0FE73150F4F0E0EE0FFF1FB7
:1023F000E759FE4F80819181CF910C942D10CD3EF5
:1024000030F08C2F0E94200ACF910C94F20ACF91C9
:102410000895882309F464C0823879F40E94F20F89
:1024200081FF5EC069E380910F01909110010E94CD
:10243000031D0E94991B69E310C08338B1F40E9408
:10244000F20F80FF4DC063E580910F019091100164
:102450000E94031D0E94991B63E580910F019091DA
:1024600010010E94051D0C94991B843879F40E9478
:10247000F20F82FF35C067E480910F019091100147
:102480000E94031D0E94991B67E4E7CF9CEF980F01
:10249000913A10F4682FE1CF90E2980F983050F401
:1024A000877091E001C0990F8A95EAF7892F0E9401
:1024B000501BD9CF9BE5980F933020F480E090E03B
:1024C0000C94171098E5980F973120F480E090E075
:1024D0000C942D108D3E20F00E947B0A0C94F20A81
:1024E00008951F93CF93DF93182FEB010E945A1189
:1024F000209741F08FE99FE00197F1F700C00000BD
:102500002197F6CF812FDF91CF911F910C94091263
:10251000893319F060E070E002C060E570E00C946F
:102520007112882321F00E944A1B0C94991B089574
:10253000882321F00E94501B0C94991B0895CF9280
:10254000DF92EF92FF920F931F93CF93DF937C0163
:10255000062FC72FFC01D281158112951F700E9492
:102560001F1B882399F0DD2389F08C2F807F803416
:1025700021F080E2800F883048F082E00E94E91B61
:102580000E941F1B91E0D82ED92601C0D12CCC2E41
:10259000C2948FE0C8228C2D90E0FC01EA5AFF4FD4
:1025A0000C941B258C2F807FCF70882311F0C2954F
:1025B000C07FDD2399F0CC2309F48DC180E2800F28
:1025C000883010F0011104C08C2F0E944A1B03C0F8
:1025D0008C2F0E945A1B0E94991B7DC1802F0E9444
:1025E0000912CC2309F49CC180E2800F883010F0DE
:1025F000011104C08C2F0E94501B03C08C2F0E941D
:10260000601B0E94991B8CC18C2F807FCF70803201
:1026100011F0C295C07F002319F00130C9F022C02B
:10262000DD2371F0112341F0113031F40E947A1B47
:102630008C2B0E94821B74C10E947A1B8C2B1DC0A4
:10264000112319F0113009F46BC10E948F1B25C0B2
:10265000DD2321F0133008F063C10EC0123008F002
:102660005FC11BC0DD2361F0112331F0F7018581CB
:1026700080FF31C18F7085838C2F0E94911250C1D1
:10268000112359F0093309F037C1FFEF27EE83E03A
:10269000F15020408040E1F72DC18C2F0E9498120C
:1026A0003FC18C2F86958695837019F0813061F03B
:1026B00037C1DD2321F0802F9C2F937002C080E072
:1026C00090E00E94171034C1DD2321F0802F9C2F51
:1026D000937002C080E090E00E942D1029C1802FED
:1026E000DD2319F00E94200A02C00E947B0A0E948A
:1026F000F20A1EC18C2F837009F045C0D11114C19C
:10270000402F429546954770440F440F602F6F70DD
:10271000862F90E0A0E0B0E0042E04C0880F991F3F
:10272000AA1FBB1F0A94D2F704FF10C00FE010E0ED
:1027300020E030E004C0000F111F221F331F4A9514
:10274000D2F7009510952095309503C000E010E079
:102750009801C695C695C370BC01CD01602B712B45
:10276000822B932BC23049F058F4C13019F00E94EB
:102770006219DAC00E945019D7C00E947419D4C0DF
:102780000E944E19D1C0DD2319F08C2F817001C039
:102790008695882309F4C8C0402F42954695477016
:1027A000440F440F602F6F70862F90E0A0E0B0E0E0
:1027B000042E04C0880F991FAA1FBB1F0A94D2F7CA
:1027C00004FF10C00FE010E020E030E004C0000F74
:1027D000111F221F331F4A95D2F70095109520959F
:1027E000309503C000E010E09801C695C695C3700F
:1027F000BC01CD01602B712B822B932BC23049F091
:1028000058F4C13019F00E94271A8EC00E94151A80
:102810008BC00E94391A88C00E94881985C0CF7069
:10282000DD2339F08C2F0E94AE19802F0E94911267
:102830007BC0802F0E9498128C2F0E94CF1974C0E9
:10284000023F01F128F4003F41F0013FA1F03FC0F9
:10285000033FF9F0043F39F13AC0DD2341F0123073
:1028600008F05EC08C2F8F710E94F41959C013308C
:1028700008F056C0F7CFDD2339F08C2F8F710E94FE
:10288000AE194EC0DD23C9F38C2F8F710E94CF1972
:1028900047C0DD2329F08C2F8F710E94991940C009
:1028A0000E9494193DC0DD2349F0CF718C2F0E9406
:1028B000AE1963E08C2F0E94CE1B32C081E00E94D3
:1028C000E91B123068F182E00E94E91B29C0DD2378
:1028D00031F0112391F2802F0E945A1121C011234F
:1028E00099F2093349F49FEFE7EEF3E09150E040AD
:1028F000F040E1F700C00000802F0E94091210C0D4
:102900004C2F4F70602FC7010E949E030E94BF187A
:102910000FC04C2F4F70602FC7010E94A10308C049
:1029200088EF8C0D843020F40E94F20F0E949503F2
:10293000DD20C9F00E941B1B80FD15C0F70112822B
:102940000E94151B0E94AE19C7010E94D4140E9458
:10295000151BDF91CF911F910F91FF90EF90DF90AA
:10296000CF900C94CF19DF91CF911F910F91FF90D1
:10297000EF90DF90CF9008950F931F93CF93DF9345
:10298000EC01688179818A810E94F21A8C010E948F
:102990004B1A0E943C19B801CE010E949F12DF9190
:1029A000CF911F910F910895CF93DF93EC01988100
:1029B00089812B813C81232B31F08F3F31F481E0E1
:1029C0009F3F19F403C081E001C080E080FD19C081
:1029D000CE010E943C0381110CC00E941F1B882362
:1029E00081F08A81882369F082E0DF91CF910C9495
:1029F000E91BCE010E94BC14CE01DF91CF910C9453
:102A00001B03DF91CF91089580E090E00E941710A2
:102A100080E090E00E942D100E94671B0E94771BAF
:102A20000E94991B0E94230C0C94F20A80910F01C2
:102A3000909110010E94071D0C9404150E94571BD1
:102A40000C941615E92FE295EF704E2F50E0FA0125
:102A50003297EE30F105B0F4EA59FF4F0C941B2584
:102A6000803F91F018F4883E68F40EC0843F51F422
:102A70000BC0883E48F0813F29F406C093FB8827AD
:102A800080F9089580E0089581E008950E94E71A92
:102A90000E9422150895CF93DF9300D000D01F929B
:102AA000CDB7DEB70F900F900F900F900F90DF9182
:102AB000CF910895CF93DF9300D000D000D0CDB751
:102AC000DEB726960FB6F894DEBF0FBECDBFDF91FE
:102AD000CF9108951F93CF93DF93C091DF0116E04C
:102AE0008091E001C81799F0D0E01C9FF0011D9F74
:102AF000F00D1124EF51FE4F4081518162817381AD
:102B0000848195810E945A152196C770E9CFDF9183
:102B1000CF911F910895409111025091120260913E
:102B200013027091140280911502909116020C9478
:102B30005A152091DF019091E00156E02917A9F084
:102B400030E0529FF001539FF00D1124EF51FE4FE2
:102B50007181761306C07081781303C0728174137B
:102B600006C02F5F3F4F2770E9CF80E0089581E0D6
:102B700008950F931F93CF93DF9380911602829550
:102B80008F7009F05DC080911302882309F458C04A
:102B90008091DF011091E0016091110270911202A9
:102BA000C0911402D091150291E06F3F09F090E0BE
:102BB000292F06E0811709F443C0209721F07F3FB9
:102BC00021F030E003C031E001C0322F90E030FD51
:102BD00034C0089FF001099FF00D1124DF01AF51AF
:102BE000BE4F11963C911197371327C03C91361375
:102BF00024C012963C91129731111FC013964D912B
:102C00005C9114974C1B5D0B483C5105B0F48091CE
:102C100016028F70806180931602EA51FE4F808108
:102C20008F708061808381E192E00E94D414DF91F3
:102C3000CF911F910F910C946A1501968770BACFAE
:102C4000DF91CF911F910F9108958F929F92AF9234
:102C5000BF92CF92DF92EF92FF920F931F93CF9389
:102C6000DF93CDB7DEB761970FB6F894DEBF0FBE26
:102C7000CDBF8C0185E0F801DE011D9601900D921B
:102C80008A95E1F7D801DC901196EC901197129695
:102C9000CC90909111022091120240911402509117
:102CA00015024115510531F02F3F31F481E09F3F6E
:102CB00019F403C081E001C080E080FD81C1F8010A
:102CC0008380948081E1A82E82E0B82EF0901302D8
:102CD000B401641B750BFF2009F418C18091160222
:102CE000382F307F683C710508F0D1C031118AC09F
:102CF000E21214C0D91212C0FC2CC1100FC08F7088
:102D00008061809316020E948B15C5010E94D41425
:102D100080911602D80115968C936FC1811491048D
:102D200039F0BFEFEB1206C081E0DB1203C003C035
:102D300081E001C080E080FD03C081E08C2502C0FD
:102D400080E090E080FF10C04C2D6E2D8D2D0E94F4
:102D50009915882349F081E192E00E94D414E1E1C1
:102D6000F2E086E0DF01A4C0892839F0BFEFEB1262
:102D700006C081E0DB1203C003C081E001C080E037
:102D800080FD03C081E08C2502C080E090E0E82F48
:102D9000E170BE2E80FF2CC04C2D6E2D8D2D0E941B
:102DA0009915F82E811124C0DD86EE868D859E85CD
:102DB0000E94E71A292F22952F70223018F0243014
:102DC00090F405C09F7059F0811109C016C19F7021
:102DD00031F0D80115969C91907F09F40EC1805E68
:102DE000883008F40AC1C8010E94D414FB2C05C124
:102DF000FC2CCC2009F401C18091160281608093E3
:102E000016025BC0E21206C0D91204C0C11002C093
:102E1000F801A0C0DD86EE868D859E850E94461550
:102E2000882379F1CC2069F120911602822F8295B6
:102E30008F7090E0029774F08091110290911202CD
:102E400098878F8319869B868A862C87CE01079662
:102E50000E94D41486E0F801A1E1B2E001900D9245
:102E60008A95E1F70E94B9150E948B150DC0E216F4
:102E700031F1DD86EE868D859E850E944615811195
:102E80002DC0C8010E94D414FF24F394B6C03111A0
:102E9000EECF782D998A888A4D2D5E2D6C2D8989EB
:102EA0000E944B1581E192E00E94D41486E0D50186
:102EB0001D928A95E9F70E948B15F12C9EC0D912BC
:102EC000D8CFC110D6CFF8018583C8010E94D41491
:102ED00086E0D5011D928A95E9F78FC0CC2089F252
:102EE00020911602822F82958F7090E002970CF449
:102EF000B1CF80911102909112029A8389831B8233
:102F00009D828C822E83CE010196A2CF683C7105F2
:102F100008F047C0FC2CCC2009F4B3CFE21230C03B
:102F2000D9122EC02091160220FD21C0822F829539
:102F30008F70482F50E041155105C9F0F8012583E5
:102F40004F30510541F08F5F982F9295907F822FDF
:102F50008F70892B8583C8010E94D41486E0F80104
:102F6000A1E1B2E001900D928A95E1F744C086E0BC
:102F7000F801A1E1B2E001900D928A95E1F73DC020
:102F8000DD86EE868D859E850E944615811162CF75
:102F900080911602816080931602C8010E94D414A9
:102FA0002CC0782D998A888A4D2D5E2D6C2D8989AB
:102FB0000E944B1586E0D5011D928A95E9F71BC04A
:102FC000CC2009F45ECFDD86EE868D859E850E943D
:102FD0004615F82E882309F454CF86E0F801A1E1C4
:102FE000B2E001900D928A95E1F781E192E00E94B2
:102FF00054110E94B9150E948B158F2D61960FB642
:10300000F894DEBF0FBECDBFDF91CF911F910F911E
:10301000FF90EF90DF90CF90BF90AF909F908F90F8
:1030200008951F93CF93DF93CDB7DEB72C970FB6DC
:10303000F894DEBF0FBECDBF4F83588769877A876C
:103040008B879C87CE0107960E9425168823D1F096
:103050009F8188852A853B85232B31F08F3F31F472
:1030600081E09F3F19F403C081E001C080E080FD52
:1030700047C04F81588569857A858B859C850E94DC
:103080005A153EC086E0FE013796DE01119601908A
:103090000D928A95E1F7FF81E8856A857B85611548
:1030A000710531F0EF3F31F481E0FF3F19F403C0C7
:1030B00081E001C080E080FD23C02091E00130E08C
:1030C000C9010196877099274091DF0150E084176C
:1030D0009507F1F1F983EA837D836C8396E0929FF3
:1030E000D001939FB00D1124AF51BE4FFE01319618
:1030F00001900D929A95E1F78093E0010E946A1584
:1031000016E08091DF019091E001891771F1189F1D
:10311000C00111248F519E4F0E942516882329F14A
:10312000E091DF011E9FF0011124EF51FE4F40811D
:10313000518162817381848195810E945A158091A9
:10314000DF0190E00196877099278093DF01D9CF46
:103150000E941E151092E0011092DF01E1E1F2E001
:1031600086E0DF011D928A95E9F72C960FB6F89458
:10317000DEBF0FBECDBFDF91CF911F910895EF92BB
:10318000FF920F931F93CF93DF938C01892B09F448
:103190006CC0F12CEE24E394E8012196F8018491AF
:1031A000843740F4843008F051C0813081F082309F
:1031B00019F15BC0853709F444C0A8F19CE7980F6A
:1031C000903708F052C08F770E94091241C00E5FFD
:1031D0001F4FFE01849190E2980F983050F4877051
:1031E000FE2D01C0FF0F8A95EAF78F2F0E946A1B00
:1031F00014C00E945A112DC00E5F1F4FFE01849112
:1032000090E2980F983060F48770FE2D01C0FF0F98
:103210008A95EAF78F2F0E94701B0E94991B19C094
:103220000E94091216C00E5F1F4FFE01C491CC23ED
:1032300081F08FE99FE00197F1F700C00000C150D5
:10324000F6CF0E5F1F4FFE01F49003C00E945A118B
:103250008E018F2D882309F49FCFEFE9FFE031978E
:10326000F1F700C000008150F5CFDF91CF911F91A1
:103270000F91FF90EF900895089508950C943D19D3
:103280000C943E190E9440196093480270934902C1
:1032900080934A0290934B020C9404150C944219AB
:1032A0000F931F93009148021091490220914A0206
:1032B00030914B02602B712B822B932B1F910F911E
:1032C0000C9442190F931F930091480210914902E8
:1032D00020914A0230914B02602371238223932371
:1032E0001F910F910C9442190F931F930091480264
:1032F0001091490220914A0230914B0260277127B8
:10330000822793271F910F910C9442190C943D1919
:103310000E9486196093440270934502809346028E
:10332000909347020C94041560E070E0CB010C947C
:1033300088190F931F9341E050E060E070E08A012C
:103340009B0104C0000F111F221F331F8A95D2F763
:10335000C901B8011F910F910C9488190F931F9305
:1033600041E050E060E070E004C0440F551F661F6C
:10337000771F8A95D2F78091440290914502A091DF
:103380004602B09147028A019B01082B192B2A2B78
:103390003B2BC901B8011F910F910C9488190F9311
:1033A0001F9341E050E060E070E004C0440F551FFF
:1033B000661F771F8A95D2F7409550956095709556
:1033C0008091440290914502A0914602B09147023B
:1033D0008A019B01082319232A233B23C901B80131
:1033E0001F910F910C9488190F931F9341E050E0A7
:1033F00060E070E004C0440F551F661F771F8A9578
:10340000D2F78091440290914502A0914602B0917A
:1034100047028A019B01082719272A273B27C90150
:10342000B8011F910F910C9488190F931F9300916D
:103430004402109145022091460230914702602BD0
:10344000712B822B932B1F910F910C9488190F9342
:103450001F93009144021091450220914602309141
:10346000470260237123822393231F910F910C94B1
:1034700088190F931F9300914402109145022091E7
:1034800046023091470260277127822793271F91B8
:103490000F910C9488190895292F220F920F990FDC
:1034A000890FE82FE695E695E695877051E001C013
:1034B000550F8A95EAF785E0E89FF0011124E95E4F
:1034C000FD4F20E030E070E04081CB01022E02C0D1
:1034D000969587950A94E2F78170819584278523D4
:1034E000842781932F5F3F4F2530310569F7089579
:1034F000292F220F920F990F890F682F66956695D5
:103500006695982F977085E0689FB001112440E080
:1035100050E080E0FB01E40FF51FE95EFD4F2081E4
:1035200030E0092E02C0369527950A94E2F7217003
:103530003327042E01C0220F0A94EAF7822B4F5F33
:103540005F4F4530510531F70895BF92CF92DF921A
:10355000EF92FF920F931F93CF93DF938C01C09054
:103560004402D0904502E0904602F09047028091DC
:10357000480290914902A0914A02B0914B02C82A98
:10358000D92AEA2AFB2ACFE1D0E0D701C6010C2EC6
:1035900004C0B695A795979587950A94D2F780FDB4
:1035A00004C0219790F7B12C07C0BC2EB8018C2F16
:1035B0000E94BD030197A9F38B2DDF91CF911F913D
:1035C0000F91FF90EF90DF90CF90BF900895CF9331
:1035D000DF93EC010E94A51ABE010E94BD03DF919A
:1035E000CF9108951F93CF93DF93EB019091DE016C
:1035F000992321F0CB010E94E71A13C0882349F0D8
:10360000CB010E94A51A182F682FCE010E944C1AD8
:1036100004C0CB010E94781A182FBE01812F0E948E
:10362000BD03DF91CF911F91089580914C02859544
:1036300085958595089580914C02877008959091A5
:103640004C02977081E009F480E008959091660241
:1036500092FB222720F9281751F080FB92F99093D2
:10366000660280916502909166020C942C1C08956C
:103670008091660282FB882780F991E089270C946B
:10368000261B81E00C94261B80E00C94261B809165
:103690005802089590915802892B809358020895FA
:1036A0008095909158028923809358020895109232
:1036B0005802089590915702892B809357020895DC
:1036C0008095909157028923809357020895109214
:1036D0005702089590915602892B809356020895BF
:1036E00080959091560289238093560208951092F6
:1036F0005602089580914D02089508950C947D1B03
:103700000C947E1B9091660292FD08C090914D0230
:10371000981721F080934D020C94801B089580919E
:103720004D02882329F010924D0280E00C94801BFA
:103730000895E0910F01F09110018091580280836B
:10374000E0910F01F0911001908180915702892B37
:103750008083E0910F01F0911001908180915602D9
:10376000892B808380914D02882381F0E0910F01A5
:10377000F09110019081892B808380910F019091AD
:1037800010010E94C11C81110E948F1B80910F01AA
:10379000909110010C94FE0F0C947D1B9091660289
:1037A00092FD10C098E0899F90011124262B209350
:1037B0004C020E94AE1980914C02859585958595A5
:1037C0000C94CC1B0C94AE1910924C0280E00C941B
:1037D000CC1B20914C028095822380934C02982F21
:1037E000977041F430E0482F082E000C550B241739
:1037F000350721F49091660292FF07C08595859563
:1038000085950E94CF190C94E41B089580E00895DB
:1038100080E090E00E943D2521E08A3E9E4F09F025
:1038200020E0822F089582E090E00C94352583E01B
:1038300090E00C943525CF9384E090E00E943525EC
:10384000C82F82E290E00E9435252C2F30E0A9019C
:10385000582BCA01CF910895CF93C92F682F84E0C8
:1038600090E00E9443256C2F82E290E0CF910C946F
:103870004325AB01BC018FE090E00C945525AB01D2
:10388000BC0183E190E00C94552560E070E0CB0131
:103890000C943F1C60E070E0CB010E94391C0C943A
:1038A000451C6AEE7EEF80E090E00E94612560E0BA
:1038B00082E090E00E94432560E083E090E00E9477
:1038C0004325109248021092490210924A02109227
:1038D0004B0260E084E090E00E94432560E082E2D9
:1038E00090E00E94432560E085E090E00E9443253F
:1038F00060E086E090E00E9443256FEF87E090E073
:103900000E94432540E050E0BA0188E090E00E9428
:10391000552560E08DE090E00E94432540E050E0B6
:10392000BA0188E190E00E94552560E087E190E0CF
:103930000E94432540E050E0BA018CE190E00E94F3
:10394000552560E070E080E290E00E94612540E053
:1039500050E0BA0188E190E00E9455250C944A1C81
:103960000C94511C8EE090E00E94352591E081116D
:1039700001C090E0892F0895682F8EE090E00C94AC
:103980004325FC01329697E080E0915029F0219187
:103990002223D9F38F5FF9CF0895662349F0FC0104
:1039A000329608962191621729F0E817F907D1F7A6
:1039B00080E0089581E008959C01FC0132969FEF1C
:1039C00080E04191461789F09F3F19F4411101C0F1
:1039D000982F8F5F8630A9F79F3F39F0F901E90FE3
:1039E000F11D97FDFA956283089508959C012A5F61
:1039F0003F4FFC014281461301C01282019682179B
:103A00009307B9F708950C94DC1C0C94F61C0296ED
:103A100026E0FC0111922A95E9F7089508950C9487
:103A20000E1D0C940E1DCF930E94111D0E94A50621
:103A30000E940F1DC0E08C2F0E94D105811104C08F
:103A4000CF5FCC30C1F701C081E0CF9108950C94D5
:103A50000E1D0C94271D80918D02843049F10E9427
:103A6000291D80E00E94950310925A0220E488E10B
:103A700090E00FB6F894A895809360000FBE209355
:103A8000600083B7817F846083BF83B7816083BF19
:103A90007894889583B78E7F83BF0FB6F894A895E6
:103AA00080916000886180936000109260000FBE7A
:103AB00008950C940E1D0E941E150E94F20F0E9484
:103AC00095030C94591D1F920F920FB60F9211245B
:103AD0008F939F93AF93BF9380915A02811113C02C
:103AE0008091810290918202A0918302B091840220
:103AF0004196A11DB11D8093810290938202A093F3
:103B00008302B0938402BF91AF919F918F910F90E8
:103B10000FBE0F901F90189582E084BD93E095BD75
:103B20009AEF97BD80936E0008952FB7F894809117
:103B3000810290918202A0918302B09184022FBFF2
:103B400008952FB7F894609181027091820280915C
:103B50008302909184022FBF08959C014FB7F8947F
:103B60008091810290918202A0918302B09184029F
:103B70004FBF821B930B089578941F920F920FB63C
:103B80000F9211248F939F93AF93BF9380918102E3
:103B900090918202A0918302B09184020196A11DAE
:103BA000B11D8093810290938202A0938302B0930F
:103BB0008402BF91AF919F918F910F900FBE0F9094
:103BC0001F9018951092850210928602109287021B
:103BD000109288020895CF92DF92EF92FF926B01CC
:103BE0007C010E94690781110EC00E94A11DC61AA6
:103BF000D70AE80AF90AC0928502D0928602E092BA
:103C00008702F0928802FF90EF90DF90CF900895A6
:103C10000F931F930E946907882321F01F910F9132
:103C20000C94A11D0E94A11D009185021091860295
:103C30002091870230918802600F711F821F931FAD
:103C40001F910F91089587E797E79093010880935C
:103C500000089AE088E10FB6F894A8958093600078
:103C60000FBE90936000FFCF90939B0180939A01C9
:103C70000895809163020895CF93DF9300D01F923F
:103C8000CDB7DEB790918D02943019F589837B838F
:103C90006A8382E08093E9008FEF9091E800815081
:103CA00095FD06C095ED9A95F1F700008111F5CFCD
:103CB0008091E80085FF0DC040E050E063E070E0D7
:103CC000CE0101960E9457208091E8008E77809364
:103CD000E8000F900F900F90DF91CF910895BC01F5
:103CE00084E00C943C1EBC0183E00C943C1E22E05A
:103CF0002093E9002FEF3091E800215035FD06C0F8
:103D000035ED3A95F1F700002111F5CF2091E8004B
:103D100025FF0BC040E050E066E070E00E945720B5
:103D20008091E8008E778093E8000895CF93DF9329
:103D300021E02093E9002FEF3091E800215035FD7C
:103D400006C035ED3A95F1F700002111F5CF20912D
:103D5000E80025FF14C0EC0140E050E068E070E0AE
:103D60000E9457208091E8008E778093E80088E0D9
:103D7000FE01ABE5B2E001900D928A95E1F7DF918B
:103D8000CF91089580918C02811109C00E94E82191
:103D90000E9445228091E20084608093E2000895B1
:103DA00010928C02089508950895089542E061EC00
:103DB00081E00E94612142E261EC82E00C94612189
:103DC00080918F02833009F460C030F4813071F04B
:103DD000823009F499C008958A3009F485C08B3087
:103DE00009F46BC0893009F0A7C020C080918E0211
:103DF000813A09F0A1C08091E800877F8093E800B4
:103E00008091920290919302892B21F468E08BE5D6
:103E100092E003C060E080E090E070E00E94A220A9
:103E20008091E8008B778093E800089580918E025E
:103E3000813209F081C080919202909193020297A1
:103E400008F07AC08091E800877F8093E800809135
:103E5000E80082FD05C080918D028111F8CF6CC011
:103E60002091F3008091F20090E0922B029729F4C8
:103E70008091F1008B7F813021F48091F10080935B
:103E800063028091E8008B7753C080918E02813A63
:103E900009F052C08091920290919302892B09F00F
:103EA0004BC08091E800877F8093E8008091E80014
:103EB00080FFFCCF80911B0136C080918E02813241
:103EC000D9F58091920290919302892BA9F5809166
:103ED000E800877F8093E8000E94962180919002FD
:103EE00080931B010C941E1580918E02813221F566
:103EF0008091E800877F8093E8000E94962180915E
:103F0000910280936402089580918E02813AA1F417
:103F10008091E800877F8093E8008091E80080FF2F
:103F2000FCCF809164028093F1008091E8008E774D
:103F30008093E8000C949621089584B7877F84BF0E
:103F40000FB6F894A8958091600088618093600016
:103F5000109260000FBE90E080E80FB6F894809356
:103F60006100909361000FBE0E946C100E94E821D6
:103F70000E9445228091E20084608093E200789460
:103F80000E94DA240E947A1081E191E00E94ED0FF4
:103F900080918D028530A9F480918D02853079F46D
:103FA0000E942B1D80918B028823B1F30E94131D68
:103FB000882391F30E9441200E941E15EDCF0E949C
:103FC0005B1D0E9482100E947610E2CF0C94E81FC5
:103FD000292F332723303105C9F060F42130310512
:103FE00081F02230310509F044C08BE390E02EE0EF
:103FF00034E043C021323105E1F02232310549F18C
:1040000038C082E190E029E434E037C0992781305C
:10401000910549F028F0029761F5ECECF3E005C05A
:10402000EAE0F4E002C0EAEFF3E0849190E09F015F
:1040300024C06115710541F061307105D1F489E04A
:1040400090E029E334E019C089E090E020E234E018
:1040500014C06115710541F06130710551F48BE7B1
:1040600090E02BE534E009C080E490E026ED34E0F8
:1040700004C080E090E020E030E0FA01318320834A
:10408000089580E189BD82E189BD09B400FEFDCFBC
:104090008091D8008F7D8093D8008091E00082606D
:1040A0008093E0008091E00081FDFCCF0895CF92E5
:1040B000DF92EF92FF920F931F93CF93DF93EC0168
:1040C0008B017A010E94B521811133C0E114F10402
:1040D00039F0F70180819181081B190BC80FD91F96
:1040E000C12CD12C0115110519F18091E80085FD35
:1040F00016C08091E8008E778093E800E114F10407
:1041000049F0F70180819181C80ED91ED182C08209
:1041100085E00FC00E94B521882321F30AC0899150
:104120008093F10001501109FFEFCF1ADF0ADACFB7
:1041300080E0DF91CF911F910F91FF90EF90DF9082
:10414000CF90089520919402309195022617370759
:1041500048F06115710539F42091E8002E7720931D
:10416000E80001C0B901FC0120E06115710579F199
:1041700080918D028823F1F18530F1F18091E80082
:1041800083FD3CC08091E80082FD2EC08091E80054
:1041900080FFEBCF2091F3008091F20090E0922B12
:1041A0006115710551F08830910538F42191209303
:1041B000F100615071090196F3CF21E0089709F0F1
:1041C00020E08091E8008E778093E800CECF211127
:1041D000CFCF0AC080918D02882361F0853061F0D5
:1041E0008091E80083FD0AC08091E80082FFF2CF51
:1041F00080E0089582E0089583E0089581E00895C5
:1042000020919402309195022617370748F06115E6
:10421000710539F42091E8002E772093E80001C061
:10422000B901FC0120E06115710591F180918D02C9
:10423000882309F440C0853009F43FC08091E8002C
:1042400083FD3DC08091E80082FD2FC08091E80091
:1042500080FFE9CF2091F3008091F20090E0922B53
:104260006115710559F08830910540F4249120932F
:10427000F1003196615071090196F2CF21E0089763
:1042800009F020E08091E8008E778093E800CBCFA2
:104290002111CCCF0AC080918D02882361F0853036
:1042A00061F08091E80083FD0AC08091E80082FF00
:1042B000F2CF80E0089582E0089583E0089581E0E0
:1042C0000895982F973068F59093E900981739F082
:1042D0007091EC002091ED005091F00003C0242F6C
:1042E000762F50E021FD02C09F5FECCF3091EB00B4
:1042F0003E7F3093EB003091ED003D7F3093ED0039
:104300003091EB0031603093EB007093EC00209320
:10431000ED005093F0002091EE0027FDE5CF80E006
:1043200008958F708093E90081E0089580918E0256
:1043300087FF11C08091E80082FD05C080918D0249
:104340008111F8CF11C08091E8008B770BC080916C
:104350008D02882349F08091E80080FFF8CF80919A
:10436000E8008E778093E80008952091E400309172
:10437000E50095E64091EC00842F817040FF23C05A
:104380008091E80080FD1DC080918D02882399F006
:10439000853099F08091EB0085FD11C04091E400DB
:1043A0005091E5002417350729F3915011F09A0137
:1043B000E1CF84E0089582E0089583E0089581E0EC
:1043C000089580E008954091E80042FFDDCF089510
:1043D0000E9456220E945E22E0EEF0E08081816021
:1043E0008083E8EDF0E080818F77808319BCA7EDB2
:1043F000B0E08C918E7F8C9380818F7E8083109231
:104400008C0208950F931F93CF93DF930E9456223F
:104410000E945E22C8EDD0E088818F7788838881F2
:104420008068888388818F7D888319BC10928D0273
:104430001092890210928B0210928A0200EE10E014
:10444000F80180818B7F808388818160888342E04E
:1044500060E080E00E946121E1EEF0E080818E7FEB
:104460008083E2EEF0E080818160808380818860DB
:104470008083F80180818E7F80838881806188833A
:10448000DF91CF911F910F910895E8EDF0E08081C9
:104490008F7E8083E7EDF0E080818160808384E01F
:1044A00082BF81E080938C020C940222E8EDF0E060
:1044B00080818E7F80831092E20008951092DA004E
:1044C0001092E10008951F920F920FB60F921124DF
:1044D0002F933F934F935F936F937F938F939F930C
:1044E000AF93BF93EF93FF938091E10082FF0BC0E6
:1044F0008091E20082FF07C08091E1008B7F809372
:10450000E1000E94D9248091DA0080FF1FC08091D1
:10451000D80080FF1BC08091DA008E7F8093DA0084
:104520008091D90080FF0DC080E189BD82E189BD05
:1045300009B400FEFDCF81E080938D020E94C21E6F
:1045400005C019BC10928D020E94D01E8091E1001E
:1045500080FF19C08091E20080FF15C08091E200C9
:104560008E7F8093E2008091E20080618093E20080
:104570008091D80080628093D80019BC85E0809338
:104580008D020E94D41E8091E10084FF30C0809192
:10459000E20084FF2CC080E189BD82E189BD09B4BD
:1045A00000FEFDCF8091D8008F7D8093D800809150
:1045B000E1008F7E8093E1008091E2008F7E809306
:1045C000E2008091E20081608093E20080918902A4
:1045D000882311F084E007C08091E30087FD02C0CA
:1045E00081E001C083E080938D020E94D51E8091FE
:1045F000E10083FF29C08091E20083FF25C0809104
:10460000E100877F8093E10082E080938D02109229
:1046100089028091E1008E7F8093E1008091E20029
:104620008E7F8093E2008091E20080618093E200BF
:1046300042E060E080E00E9461218091F0008860AB
:104640008093F0000E94D31EFF91EF91BF91AF9134
:104650009F918F917F916F915F914F913F912F919A
:104660000F900FBE0F901F9018951F920F920FB6CC
:104670000F9211242F933F934F935F936F937F93E8
:104680008F939F93AF93BF93CF93DF93EF93FF935A
:10469000C091E900CF708091EC00D82FD17080FDDF
:1046A000D0E81092E9008091F000877F8093F000BD
:1046B00078940E9479231092E9008091F00088603C
:1046C0008093F000CD2BCF70C093E900FF91EF9164
:1046D000DF91CF91BF91AF919F918F917F916F911A
:1046E0005F914F913F912F910F900FBE0F901F90B0
:1046F00018951F93CF93DF93CDB7DEB7AA970FB668
:10470000F894DEBF0FBECDBFEEE8F2E08091F1007D
:10471000819322E0E639F207C9F70E94E01E8091FA
:10472000E80083FF2EC180918E0290918F02492F65
:1047300050E04A30510508F024C1FA01EC58FF4F0F
:104740000C941B25803821F0823809F01AC108C06A
:1047500080918A0290918B02992389F082600FC028
:10476000809192028F70873008F00BC18093E9002E
:104770008091EB0085FB882780F91092E9009091E9
:10478000E800977F9093E8008093F1001092F10089
:10479000D1C0282F2D7F09F0F4C0882319F0823072
:1047A00061F0EFC080919002813009F0EAC093304F
:1047B00009F080E080938B022EC0809190028111DD
:1047C0002AC0809192028F702FEF280F263008F0B8
:1047D000D8C08093E9002091EB0020FF1CC09330EB
:1047E00021F48091EB00806214C09091EB00906105
:1047F0009093EB0021E030E0A90102C0440F551F67
:104800008A95E2F74093EA001092EA008091EB006B
:1048100088608093EB001092E9008091E800877F28
:104820008093E8000E949621ACC08111AAC010912B
:1048300090021F778091E3008078812B8093E300C2
:104840008091E800877F8093E8000E949621809104
:10485000E80080FFFCCF8091E30080688093E30054
:10486000111102C082E001C083E080938D0289C0F3
:104870008058823008F085C080919002909191021A
:104880008C3D53E0950779F583E08A838AE289833A
:104890004FB7F894DE01139620E03EE051E2E32F9B
:1048A000F0E050935700E49120FF03C0E295EF70D1
:1048B0003F5FEF708E2F90E0EA3010F0C79601C096
:1048C000C0968D939D932F5F243149F74FBF809100
:1048D000E800877F8093E8006AE270E0CE010196ED
:1048E0000E94A22016C06091920270919302AE01C4
:1048F0004F5F5F4F0E94E61FBC01892B09F441C046
:104900009091E800977F9093E80089819A810E94B6
:1049100000218091E8008B778093E80032C08038D6
:1049200081F58091E800877F8093E800809189027B
:104930008093F1008091E8008E7772CF811121C0C1
:10494000809190029091910299270297D4F48091DE
:10495000E800877F8093E80080919002809389022D
:104960000E94962180918902811106C08091E30006
:1049700087FD02C081E001C084E080938D020E9427
:10498000D61E8091E80083FF0AC08091E800877FEF
:104990008093E8008091EB0080628093EB00AA9600
:1049A0000FB6F894DEBF0FBECDBFDF91CF911F9140
:1049B00008950895CF9380918D028823A1F0C0912E
:1049C000E900CF709091EC00892F817090FD80E814
:1049D000C82B1092E9008091E80083FD0E947923A2
:1049E000CF70C093E900CF9108950E94E821109202
:1049F0008D020895E8EDF0E08081806180838AE196
:104A00008A95F1F700C08091D9008170089597FBD5
:104A1000072E16F4009407D077FD09D00E942125B7
:104A200007FC05D03EF4909581959F4F08957095B1
:104A300061957F4F0895EE0FFF1F0590F491E02DD3
:104A40000994AA1BBB1B51E107C0AA1FBB1FA617D5
:104A5000B70710F0A61BB70B881F991F5A95A9F727
:104A600080959095BC01CD010895F999FECF92BD36
:104A700081BDF89A992780B50895A8E1B0E042E099
:104A800050E00C946925262FF999FECF92BD81BD87
:104A9000F89A019700B4021639F01FBA20BD0FB67C
:104AA000F894FA9AF99A0FBE08950396272F0E9458
:104AB00044250E944325252F0E944425242F0C9431
:104AC00044250196272F0E9444250C944325DC01A0
:104AD000CB01FC01F999FECF06C0F2BDE1BDF89A09
:104AE000319600B40D9241505040B8F70895F894B3
:024AF000FFCFF6
:104AF200012808643C0714B60104B70106BB014E45
:104B020002391E961E771E731E6F1E01E200E90017
:104B1200EA00B500B600B700CD008301CC008A01DF
:104B22009201940121022302240225022602270275
:104B32002A02B300B4006F007000818283946697EA
:104B4200C63435F6F731333236000000000000017A
:104B5200020304050607080900E200E900EA00B5BD
:104B620000B600B700CD008301CC008A0192019407
:104B7200012102230224022502260227022A02B36D
:0A4B820000B4006F00700081828310
:00000001FF
